{
  "contractName": "FarmToken",
  "abi": [
    {
      "inputs": [
        {
          "internalType": "address",
          "name": "_token",
          "type": "address"
        }
      ],
      "stateMutability": "nonpayable",
      "type": "constructor"
    },
    {
      "anonymous": false,
      "inputs": [
        {
          "indexed": true,
          "internalType": "address",
          "name": "owner",
          "type": "address"
        },
        {
          "indexed": true,
          "internalType": "address",
          "name": "spender",
          "type": "address"
        },
        {
          "indexed": false,
          "internalType": "uint256",
          "name": "value",
          "type": "uint256"
        }
      ],
      "name": "Approval",
      "type": "event"
    },
    {
      "anonymous": false,
      "inputs": [
        {
          "indexed": true,
          "internalType": "address",
          "name": "from",
          "type": "address"
        },
        {
          "indexed": true,
          "internalType": "address",
          "name": "to",
          "type": "address"
        },
        {
          "indexed": false,
          "internalType": "uint256",
          "name": "value",
          "type": "uint256"
        }
      ],
      "name": "Transfer",
      "type": "event"
    },
    {
      "inputs": [
        {
          "internalType": "address",
          "name": "owner",
          "type": "address"
        },
        {
          "internalType": "address",
          "name": "spender",
          "type": "address"
        }
      ],
      "name": "allowance",
      "outputs": [
        {
          "internalType": "uint256",
          "name": "",
          "type": "uint256"
        }
      ],
      "stateMutability": "view",
      "type": "function",
      "constant": true
    },
    {
      "inputs": [
        {
          "internalType": "address",
          "name": "spender",
          "type": "address"
        },
        {
          "internalType": "uint256",
          "name": "amount",
          "type": "uint256"
        }
      ],
      "name": "approve",
      "outputs": [
        {
          "internalType": "bool",
          "name": "",
          "type": "bool"
        }
      ],
      "stateMutability": "nonpayable",
      "type": "function"
    },
    {
      "inputs": [
        {
          "internalType": "address",
          "name": "account",
          "type": "address"
        }
      ],
      "name": "balanceOf",
      "outputs": [
        {
          "internalType": "uint256",
          "name": "",
          "type": "uint256"
        }
      ],
      "stateMutability": "view",
      "type": "function",
      "constant": true
    },
    {
      "inputs": [],
      "name": "decimals",
      "outputs": [
        {
          "internalType": "uint8",
          "name": "",
          "type": "uint8"
        }
      ],
      "stateMutability": "view",
      "type": "function",
      "constant": true
    },
    {
      "inputs": [
        {
          "internalType": "address",
          "name": "spender",
          "type": "address"
        },
        {
          "internalType": "uint256",
          "name": "subtractedValue",
          "type": "uint256"
        }
      ],
      "name": "decreaseAllowance",
      "outputs": [
        {
          "internalType": "bool",
          "name": "",
          "type": "bool"
        }
      ],
      "stateMutability": "nonpayable",
      "type": "function"
    },
    {
      "inputs": [
        {
          "internalType": "address",
          "name": "spender",
          "type": "address"
        },
        {
          "internalType": "uint256",
          "name": "addedValue",
          "type": "uint256"
        }
      ],
      "name": "increaseAllowance",
      "outputs": [
        {
          "internalType": "bool",
          "name": "",
          "type": "bool"
        }
      ],
      "stateMutability": "nonpayable",
      "type": "function"
    },
    {
      "inputs": [],
      "name": "name",
      "outputs": [
        {
          "internalType": "string",
          "name": "",
          "type": "string"
        }
      ],
      "stateMutability": "view",
      "type": "function",
      "constant": true
    },
    {
      "inputs": [],
      "name": "symbol",
      "outputs": [
        {
          "internalType": "string",
          "name": "",
          "type": "string"
        }
      ],
      "stateMutability": "view",
      "type": "function",
      "constant": true
    },
    {
      "inputs": [],
      "name": "token",
      "outputs": [
        {
          "internalType": "contract IERC20",
          "name": "",
          "type": "address"
        }
      ],
      "stateMutability": "view",
      "type": "function",
      "constant": true
    },
    {
      "inputs": [],
      "name": "totalSupply",
      "outputs": [
        {
          "internalType": "uint256",
          "name": "",
          "type": "uint256"
        }
      ],
      "stateMutability": "view",
      "type": "function",
      "constant": true
    },
    {
      "inputs": [
        {
          "internalType": "address",
          "name": "to",
          "type": "address"
        },
        {
          "internalType": "uint256",
          "name": "amount",
          "type": "uint256"
        }
      ],
      "name": "transfer",
      "outputs": [
        {
          "internalType": "bool",
          "name": "",
          "type": "bool"
        }
      ],
      "stateMutability": "nonpayable",
      "type": "function"
    },
    {
      "inputs": [
        {
          "internalType": "address",
          "name": "from",
          "type": "address"
        },
        {
          "internalType": "address",
          "name": "to",
          "type": "address"
        },
        {
          "internalType": "uint256",
          "name": "amount",
          "type": "uint256"
        }
      ],
      "name": "transferFrom",
      "outputs": [
        {
          "internalType": "bool",
          "name": "",
          "type": "bool"
        }
      ],
      "stateMutability": "nonpayable",
      "type": "function"
    },
    {
      "inputs": [],
      "name": "balance",
      "outputs": [
        {
          "internalType": "uint256",
          "name": "",
          "type": "uint256"
        }
      ],
      "stateMutability": "view",
      "type": "function",
      "constant": true
    },
    {
      "inputs": [
        {
          "internalType": "uint256",
          "name": "_amount",
          "type": "uint256"
        }
      ],
      "name": "deposit",
      "outputs": [],
      "stateMutability": "nonpayable",
      "type": "function"
    },
    {
      "inputs": [],
      "name": "depositAll",
      "outputs": [],
      "stateMutability": "nonpayable",
      "type": "function"
    },
    {
      "inputs": [
        {
          "internalType": "uint256",
          "name": "_amount",
          "type": "uint256"
        }
      ],
      "name": "withdraw",
      "outputs": [],
      "stateMutability": "nonpayable",
      "type": "function"
    }
  ],
  "bytecode": "0x60806040523480156200001157600080fd5b50604051620024f3380380620024f3833981810160405281019062000037919062000239565b6040518060400160405280600981526020017f4661726d546f6b656e00000000000000000000000000000000000000000000008152506040518060400160405280600381526020017f46524d00000000000000000000000000000000000000000000000000000000008152508160039080519060200190620000bb9291906200011f565b508060049080519060200190620000d49291906200011f565b50505080600560006101000a81548173ffffffffffffffffffffffffffffffffffffffff021916908373ffffffffffffffffffffffffffffffffffffffff16021790555050620002cf565b8280546200012d906200029a565b90600052602060002090601f0160209004810192826200015157600085556200019d565b82601f106200016c57805160ff19168380011785556200019d565b828001600101855582156200019d579182015b828111156200019c5782518255916020019190600101906200017f565b5b509050620001ac9190620001b0565b5090565b5b80821115620001cb576000816000905550600101620001b1565b5090565b600080fd5b600073ffffffffffffffffffffffffffffffffffffffff82169050919050565b60006200020182620001d4565b9050919050565b6200021381620001f4565b81146200021f57600080fd5b50565b600081519050620002338162000208565b92915050565b600060208284031215620002525762000251620001cf565b5b6000620002628482850162000222565b91505092915050565b7f4e487b7100000000000000000000000000000000000000000000000000000000600052602260045260246000fd5b60006002820490506001821680620002b357607f821691505b602082108103620002c957620002c86200026b565b5b50919050565b61221480620002df6000396000f3fe608060405234801561001057600080fd5b50600436106101005760003560e01c806395d89b4111610097578063b6b55f2511610066578063b6b55f25146102d7578063dd62ed3e146102f3578063de5f626814610323578063fc0c546a1461032d57610100565b806395d89b411461023b578063a457c2d714610259578063a9059cbb14610289578063b69ef8a8146102b957610100565b80632e1a7d4d116100d35780632e1a7d4d146101a1578063313ce567146101bd57806339509351146101db57806370a082311461020b57610100565b806306fdde0314610105578063095ea7b31461012357806318160ddd1461015357806323b872dd14610171575b600080fd5b61010d61034b565b60405161011a9190611519565b60405180910390f35b61013d600480360381019061013891906115d4565b6103dd565b60405161014a919061162f565b60405180910390f35b61015b610400565b6040516101689190611659565b60405180910390f35b61018b60048036038101906101869190611674565b61040a565b604051610198919061162f565b60405180910390f35b6101bb60048036038101906101b691906116c7565b610439565b005b6101c5610493565b6040516101d29190611710565b60405180910390f35b6101f560048036038101906101f091906115d4565b61049c565b604051610202919061162f565b60405180910390f35b6102256004803603810190610220919061172b565b6104d3565b6040516102329190611659565b60405180910390f35b61024361051b565b6040516102509190611519565b60405180910390f35b610273600480360381019061026e91906115d4565b6105ad565b604051610280919061162f565b60405180910390f35b6102a3600480360381019061029e91906115d4565b610624565b6040516102b0919061162f565b60405180910390f35b6102c1610647565b6040516102ce9190611659565b60405180910390f35b6102f160048036038101906102ec91906116c7565b6106ea565b005b61030d60048036038101906103089190611758565b610789565b60405161031a9190611659565b60405180910390f35b61032b610810565b005b6103356108b6565b60405161034291906117f7565b60405180910390f35b60606003805461035a90611841565b80601f016020809104026020016040519081016040528092919081815260200182805461038690611841565b80156103d35780601f106103a8576101008083540402835291602001916103d3565b820191906000526020600020905b8154815290600101906020018083116103b657829003601f168201915b5050505050905090565b6000806103e86108dc565b90506103f58185856108e4565b600191505092915050565b6000600254905090565b6000806104156108dc565b9050610422858285610aad565b61042d858585610b39565b60019150509392505050565b6104433382610daf565b6104903382600560009054906101000a900473ffffffffffffffffffffffffffffffffffffffff1673ffffffffffffffffffffffffffffffffffffffff16610f7c9092919063ffffffff16565b50565b60006012905090565b6000806104a76108dc565b90506104c88185856104b98589610789565b6104c391906118a1565b6108e4565b600191505092915050565b60008060008373ffffffffffffffffffffffffffffffffffffffff1673ffffffffffffffffffffffffffffffffffffffff168152602001908152602001600020549050919050565b60606004805461052a90611841565b80601f016020809104026020016040519081016040528092919081815260200182805461055690611841565b80156105a35780601f10610578576101008083540402835291602001916105a3565b820191906000526020600020905b81548152906001019060200180831161058657829003601f168201915b5050505050905090565b6000806105b86108dc565b905060006105c68286610789565b90508381101561060b576040517f08c379a000000000000000000000000000000000000000000000000000000000815260040161060290611969565b60405180910390fd5b61061882868684036108e4565b60019250505092915050565b60008061062f6108dc565b905061063c818585610b39565b600191505092915050565b6000600560009054906101000a900473ffffffffffffffffffffffffffffffffffffffff1673ffffffffffffffffffffffffffffffffffffffff166370a08231306040518263ffffffff1660e01b81526004016106a49190611998565b602060405180830381865afa1580156106c1573d6000803e3d6000fd5b505050506040513d601f19601f820116820180604052508101906106e591906119c8565b905090565b6000811161072d576040517f08c379a000000000000000000000000000000000000000000000000000000000815260040161072490611a41565b60405180910390fd5b61077c333083600560009054906101000a900473ffffffffffffffffffffffffffffffffffffffff1673ffffffffffffffffffffffffffffffffffffffff16611002909392919063ffffffff16565b610786338261108b565b50565b6000600160008473ffffffffffffffffffffffffffffffffffffffff1673ffffffffffffffffffffffffffffffffffffffff16815260200190815260200160002060008373ffffffffffffffffffffffffffffffffffffffff1673ffffffffffffffffffffffffffffffffffffffff16815260200190815260200160002054905092915050565b6108b4600560009054906101000a900473ffffffffffffffffffffffffffffffffffffffff1673ffffffffffffffffffffffffffffffffffffffff166370a08231336040518263ffffffff1660e01b815260040161086e9190611998565b602060405180830381865afa15801561088b573d6000803e3d6000fd5b505050506040513d601f19601f820116820180604052508101906108af91906119c8565b6106ea565b565b600560009054906101000a900473ffffffffffffffffffffffffffffffffffffffff1681565b600033905090565b600073ffffffffffffffffffffffffffffffffffffffff168373ffffffffffffffffffffffffffffffffffffffff1603610953576040517f08c379a000000000000000000000000000000000000000000000000000000000815260040161094a90611ad3565b60405180910390fd5b600073ffffffffffffffffffffffffffffffffffffffff168273ffffffffffffffffffffffffffffffffffffffff16036109c2576040517f08c379a00000000000000000000000000000000000000000000000000000000081526004016109b990611b65565b60405180910390fd5b80600160008573ffffffffffffffffffffffffffffffffffffffff1673ffffffffffffffffffffffffffffffffffffffff16815260200190815260200160002060008473ffffffffffffffffffffffffffffffffffffffff1673ffffffffffffffffffffffffffffffffffffffff168152602001908152602001600020819055508173ffffffffffffffffffffffffffffffffffffffff168373ffffffffffffffffffffffffffffffffffffffff167f8c5be1e5ebec7d5bd14f71427d1e84f3dd0314c0f7b2291e5b200ac8c7c3b92583604051610aa09190611659565b60405180910390a3505050565b6000610ab98484610789565b90507fffffffffffffffffffffffffffffffffffffffffffffffffffffffffffffffff8114610b335781811015610b25576040517f08c379a0000000000000000000000000000000000000000000000000000000008152600401610b1c90611bd1565b60405180910390fd5b610b3284848484036108e4565b5b50505050565b600073ffffffffffffffffffffffffffffffffffffffff168373ffffffffffffffffffffffffffffffffffffffff1603610ba8576040517f08c379a0000000000000000000000000000000000000000000000000000000008152600401610b9f90611c63565b60405180910390fd5b600073ffffffffffffffffffffffffffffffffffffffff168273ffffffffffffffffffffffffffffffffffffffff1603610c17576040517f08c379a0000000000000000000000000000000000000000000000000000000008152600401610c0e90611cf5565b60405180910390fd5b610c228383836111e1565b60008060008573ffffffffffffffffffffffffffffffffffffffff1673ffffffffffffffffffffffffffffffffffffffff16815260200190815260200160002054905081811015610ca8576040517f08c379a0000000000000000000000000000000000000000000000000000000008152600401610c9f90611d87565b60405180910390fd5b8181036000808673ffffffffffffffffffffffffffffffffffffffff1673ffffffffffffffffffffffffffffffffffffffff16815260200190815260200160002081905550816000808573ffffffffffffffffffffffffffffffffffffffff1673ffffffffffffffffffffffffffffffffffffffff168152602001908152602001600020600082825401925050819055508273ffffffffffffffffffffffffffffffffffffffff168473ffffffffffffffffffffffffffffffffffffffff167fddf252ad1be2c89b69c2b068fc378daa952ba7f163c4a11628f55a4df523b3ef84604051610d969190611659565b60405180910390a3610da98484846111e6565b50505050565b600073ffffffffffffffffffffffffffffffffffffffff168273ffffffffffffffffffffffffffffffffffffffff1603610e1e576040517f08c379a0000000000000000000000000000000000000000000000000000000008152600401610e1590611e19565b60405180910390fd5b610e2a826000836111e1565b60008060008473ffffffffffffffffffffffffffffffffffffffff1673ffffffffffffffffffffffffffffffffffffffff16815260200190815260200160002054905081811015610eb0576040517f08c379a0000000000000000000000000000000000000000000000000000000008152600401610ea790611eab565b60405180910390fd5b8181036000808573ffffffffffffffffffffffffffffffffffffffff1673ffffffffffffffffffffffffffffffffffffffff1681526020019081526020016000208190555081600260008282540392505081905550600073ffffffffffffffffffffffffffffffffffffffff168373ffffffffffffffffffffffffffffffffffffffff167fddf252ad1be2c89b69c2b068fc378daa952ba7f163c4a11628f55a4df523b3ef84604051610f639190611659565b60405180910390a3610f77836000846111e6565b505050565b610ffd8363a9059cbb60e01b8484604051602401610f9b929190611ecb565b604051602081830303815290604052907bffffffffffffffffffffffffffffffffffffffffffffffffffffffff19166020820180517bffffffffffffffffffffffffffffffffffffffffffffffffffffffff83818316178352505050506111eb565b505050565b611085846323b872dd60e01b85858560405160240161102393929190611ef4565b604051602081830303815290604052907bffffffffffffffffffffffffffffffffffffffffffffffffffffffff19166020820180517bffffffffffffffffffffffffffffffffffffffffffffffffffffffff83818316178352505050506111eb565b50505050565b600073ffffffffffffffffffffffffffffffffffffffff168273ffffffffffffffffffffffffffffffffffffffff16036110fa576040517f08c379a00000000000000000000000000000000000000000000000000000000081526004016110f190611f77565b60405180910390fd5b611106600083836111e1565b806002600082825461111891906118a1565b92505081905550806000808473ffffffffffffffffffffffffffffffffffffffff1673ffffffffffffffffffffffffffffffffffffffff168152602001908152602001600020600082825401925050819055508173ffffffffffffffffffffffffffffffffffffffff16600073ffffffffffffffffffffffffffffffffffffffff167fddf252ad1be2c89b69c2b068fc378daa952ba7f163c4a11628f55a4df523b3ef836040516111c99190611659565b60405180910390a36111dd600083836111e6565b5050565b505050565b505050565b600061124d826040518060400160405280602081526020017f5361666545524332303a206c6f772d6c6576656c2063616c6c206661696c65648152508573ffffffffffffffffffffffffffffffffffffffff166112b39092919063ffffffff16565b905060008151148061126f57508080602001905181019061126e9190611fc3565b5b6112ae576040517f08c379a00000000000000000000000000000000000000000000000000000000081526004016112a590612062565b60405180910390fd5b505050565b60606112c284846000856112cb565b90509392505050565b606082471015611310576040517f08c379a0000000000000000000000000000000000000000000000000000000008152600401611307906120f4565b60405180910390fd5b6000808673ffffffffffffffffffffffffffffffffffffffff168587604051611339919061215b565b60006040518083038185875af1925050503d8060008114611376576040519150601f19603f3d011682016040523d82523d6000602084013e61137b565b606091505b509150915061138c87838387611398565b92505050949350505050565b606083156113fa5760008351036113f2576113b28561140d565b6113f1576040517f08c379a00000000000000000000000000000000000000000000000000000000081526004016113e8906121be565b60405180910390fd5b5b829050611405565b6114048383611430565b5b949350505050565b6000808273ffffffffffffffffffffffffffffffffffffffff163b119050919050565b6000825111156114435781518083602001fd5b806040517f08c379a00000000000000000000000000000000000000000000000000000000081526004016114779190611519565b60405180910390fd5b600081519050919050565b600082825260208201905092915050565b60005b838110156114ba57808201518184015260208101905061149f565b838111156114c9576000848401525b50505050565b6000601f19601f8301169050919050565b60006114eb82611480565b6114f5818561148b565b935061150581856020860161149c565b61150e816114cf565b840191505092915050565b6000602082019050818103600083015261153381846114e0565b905092915050565b600080fd5b600073ffffffffffffffffffffffffffffffffffffffff82169050919050565b600061156b82611540565b9050919050565b61157b81611560565b811461158657600080fd5b50565b60008135905061159881611572565b92915050565b6000819050919050565b6115b18161159e565b81146115bc57600080fd5b50565b6000813590506115ce816115a8565b92915050565b600080604083850312156115eb576115ea61153b565b5b60006115f985828601611589565b925050602061160a858286016115bf565b9150509250929050565b60008115159050919050565b61162981611614565b82525050565b60006020820190506116446000830184611620565b92915050565b6116538161159e565b82525050565b600060208201905061166e600083018461164a565b92915050565b60008060006060848603121561168d5761168c61153b565b5b600061169b86828701611589565b93505060206116ac86828701611589565b92505060406116bd868287016115bf565b9150509250925092565b6000602082840312156116dd576116dc61153b565b5b60006116eb848285016115bf565b91505092915050565b600060ff82169050919050565b61170a816116f4565b82525050565b60006020820190506117256000830184611701565b92915050565b6000602082840312156117415761174061153b565b5b600061174f84828501611589565b91505092915050565b6000806040838503121561176f5761176e61153b565b5b600061177d85828601611589565b925050602061178e85828601611589565b9150509250929050565b6000819050919050565b60006117bd6117b86117b384611540565b611798565b611540565b9050919050565b60006117cf826117a2565b9050919050565b60006117e1826117c4565b9050919050565b6117f1816117d6565b82525050565b600060208201905061180c60008301846117e8565b92915050565b7f4e487b7100000000000000000000000000000000000000000000000000000000600052602260045260246000fd5b6000600282049050600182168061185957607f821691505b60208210810361186c5761186b611812565b5b50919050565b7f4e487b7100000000000000000000000000000000000000000000000000000000600052601160045260246000fd5b60006118ac8261159e565b91506118b78361159e565b9250827fffffffffffffffffffffffffffffffffffffffffffffffffffffffffffffffff038211156118ec576118eb611872565b5b828201905092915050565b7f45524332303a2064656372656173656420616c6c6f77616e63652062656c6f7760008201527f207a65726f000000000000000000000000000000000000000000000000000000602082015250565b600061195360258361148b565b915061195e826118f7565b604082019050919050565b6000602082019050818103600083015261198281611946565b9050919050565b61199281611560565b82525050565b60006020820190506119ad6000830184611989565b92915050565b6000815190506119c2816115a8565b92915050565b6000602082840312156119de576119dd61153b565b5b60006119ec848285016119b3565b91505092915050565b7f616d6f756e742063616e6e6f7420626520300000000000000000000000000000600082015250565b6000611a2b60128361148b565b9150611a36826119f5565b602082019050919050565b60006020820190508181036000830152611a5a81611a1e565b9050919050565b7f45524332303a20617070726f76652066726f6d20746865207a65726f2061646460008201527f7265737300000000000000000000000000000000000000000000000000000000602082015250565b6000611abd60248361148b565b9150611ac882611a61565b604082019050919050565b60006020820190508181036000830152611aec81611ab0565b9050919050565b7f45524332303a20617070726f766520746f20746865207a65726f20616464726560008201527f7373000000000000000000000000000000000000000000000000000000000000602082015250565b6000611b4f60228361148b565b9150611b5a82611af3565b604082019050919050565b60006020820190508181036000830152611b7e81611b42565b9050919050565b7f45524332303a20696e73756666696369656e7420616c6c6f77616e6365000000600082015250565b6000611bbb601d8361148b565b9150611bc682611b85565b602082019050919050565b60006020820190508181036000830152611bea81611bae565b9050919050565b7f45524332303a207472616e736665722066726f6d20746865207a65726f20616460008201527f6472657373000000000000000000000000000000000000000000000000000000602082015250565b6000611c4d60258361148b565b9150611c5882611bf1565b604082019050919050565b60006020820190508181036000830152611c7c81611c40565b9050919050565b7f45524332303a207472616e7366657220746f20746865207a65726f206164647260008201527f6573730000000000000000000000000000000000000000000000000000000000602082015250565b6000611cdf60238361148b565b9150611cea82611c83565b604082019050919050565b60006020820190508181036000830152611d0e81611cd2565b9050919050565b7f45524332303a207472616e7366657220616d6f756e742065786365656473206260008201527f616c616e63650000000000000000000000000000000000000000000000000000602082015250565b6000611d7160268361148b565b9150611d7c82611d15565b604082019050919050565b60006020820190508181036000830152611da081611d64565b9050919050565b7f45524332303a206275726e2066726f6d20746865207a65726f2061646472657360008201527f7300000000000000000000000000000000000000000000000000000000000000602082015250565b6000611e0360218361148b565b9150611e0e82611da7565b604082019050919050565b60006020820190508181036000830152611e3281611df6565b9050919050565b7f45524332303a206275726e20616d6f756e7420657863656564732062616c616e60008201527f6365000000000000000000000000000000000000000000000000000000000000602082015250565b6000611e9560228361148b565b9150611ea082611e39565b604082019050919050565b60006020820190508181036000830152611ec481611e88565b9050919050565b6000604082019050611ee06000830185611989565b611eed602083018461164a565b9392505050565b6000606082019050611f096000830186611989565b611f166020830185611989565b611f23604083018461164a565b949350505050565b7f45524332303a206d696e7420746f20746865207a65726f206164647265737300600082015250565b6000611f61601f8361148b565b9150611f6c82611f2b565b602082019050919050565b60006020820190508181036000830152611f9081611f54565b9050919050565b611fa081611614565b8114611fab57600080fd5b50565b600081519050611fbd81611f97565b92915050565b600060208284031215611fd957611fd861153b565b5b6000611fe784828501611fae565b91505092915050565b7f5361666545524332303a204552433230206f7065726174696f6e20646964206e60008201527f6f74207375636365656400000000000000000000000000000000000000000000602082015250565b600061204c602a8361148b565b915061205782611ff0565b604082019050919050565b6000602082019050818103600083015261207b8161203f565b9050919050565b7f416464726573733a20696e73756666696369656e742062616c616e636520666f60008201527f722063616c6c0000000000000000000000000000000000000000000000000000602082015250565b60006120de60268361148b565b91506120e982612082565b604082019050919050565b6000602082019050818103600083015261210d816120d1565b9050919050565b600081519050919050565b600081905092915050565b600061213582612114565b61213f818561211f565b935061214f81856020860161149c565b80840191505092915050565b6000612167828461212a565b915081905092915050565b7f416464726573733a2063616c6c20746f206e6f6e2d636f6e7472616374000000600082015250565b60006121a8601d8361148b565b91506121b382612172565b602082019050919050565b600060208201905081810360008301526121d78161219b565b905091905056fea2646970667358221220a1daff27686eb72344555b57a55b57b78b5f47a838fc33d0df3128459edfc30d64736f6c634300080d0033",
  "immutableReferences": {},
  "source": "// SPDX-License-Identifier: UNLICENSED\npragma solidity 0.8.13;\n\nimport \"@openzeppelin/contracts/token/ERC20/IERC20.sol\";\nimport \"@openzeppelin/contracts/utils/Address.sol\";\nimport \"@openzeppelin/contracts/token/ERC20/ERC20.sol\";\nimport \"@openzeppelin/contracts/token/ERC20/utils/SafeERC20.sol\";\nimport \"@openzeppelin/contracts/utils/math/SafeMath.sol\";\n\n\ncontract FarmToken is ERC20 {\n    using Address for address;\n    using SafeMath for uint256;\n    using SafeERC20 for IERC20;\n\n    IERC20 public token;\n\n    constructor(address _token) ERC20(\"FarmToken\", \"FRM\") {\n        token = IERC20(_token);\n    }\n\n    function balance() public view returns (uint256) {\n        return token.balanceOf(address(this));\n    }\n\n    function deposit(uint256 _amount) public {\n        // \n        require(_amount > 0, \"amount cannot be 0\");\n\n        // MyToken\n        token.safeTransferFrom(msg.sender, address(this), _amount);\n\n        // Mint FarmToken  msg \n        _mint(msg.sender, _amount);\n    }\n\n    function depositAll() public {\n        // msg  MyTokens \n        deposit(token.balanceOf(msg.sender));\n    }\n\n    function withdraw(uint256 _amount) public {\n        // msg  FarmTokens \n        _burn(msg.sender, _amount);\n\n        // MyTokensmsg\n        token.safeTransfer(msg.sender, _amount);\n    }\n}",
  "sourcePath": "/Users/hirosekento/Test/Dev/Solidity/DeFi-Sample-sol/contracts/FarmToken.sol",
  "compiler": {
    "name": "solc",
    "version": "0.8.13+commit.abaa5c0e.Emscripten.clang"
  },
  "schemaVersion": "3.4.14",
  "updatedAt": "2023-08-07T03:09:13.994Z",
  "networkType": "ethereum",
  "devdoc": {
    "kind": "dev",
    "methods": {
      "allowance(address,address)": {
        "details": "See {IERC20-allowance}."
      },
      "approve(address,uint256)": {
        "details": "See {IERC20-approve}. NOTE: If `amount` is the maximum `uint256`, the allowance is not updated on `transferFrom`. This is semantically equivalent to an infinite approval. Requirements: - `spender` cannot be the zero address."
      },
      "balanceOf(address)": {
        "details": "See {IERC20-balanceOf}."
      },
      "decimals()": {
        "details": "Returns the number of decimals used to get its user representation. For example, if `decimals` equals `2`, a balance of `505` tokens should be displayed to a user as `5.05` (`505 / 10 ** 2`). Tokens usually opt for a value of 18, imitating the relationship between Ether and Wei. This is the default value returned by this function, unless it's overridden. NOTE: This information is only used for _display_ purposes: it in no way affects any of the arithmetic of the contract, including {IERC20-balanceOf} and {IERC20-transfer}."
      },
      "decreaseAllowance(address,uint256)": {
        "details": "Atomically decreases the allowance granted to `spender` by the caller. This is an alternative to {approve} that can be used as a mitigation for problems described in {IERC20-approve}. Emits an {Approval} event indicating the updated allowance. Requirements: - `spender` cannot be the zero address. - `spender` must have allowance for the caller of at least `subtractedValue`."
      },
      "increaseAllowance(address,uint256)": {
        "details": "Atomically increases the allowance granted to `spender` by the caller. This is an alternative to {approve} that can be used as a mitigation for problems described in {IERC20-approve}. Emits an {Approval} event indicating the updated allowance. Requirements: - `spender` cannot be the zero address."
      },
      "name()": {
        "details": "Returns the name of the token."
      },
      "symbol()": {
        "details": "Returns the symbol of the token, usually a shorter version of the name."
      },
      "totalSupply()": {
        "details": "See {IERC20-totalSupply}."
      },
      "transfer(address,uint256)": {
        "details": "See {IERC20-transfer}. Requirements: - `to` cannot be the zero address. - the caller must have a balance of at least `amount`."
      },
      "transferFrom(address,address,uint256)": {
        "details": "See {IERC20-transferFrom}. Emits an {Approval} event indicating the updated allowance. This is not required by the EIP. See the note at the beginning of {ERC20}. NOTE: Does not update the allowance if the current allowance is the maximum `uint256`. Requirements: - `from` and `to` cannot be the zero address. - `from` must have a balance of at least `amount`. - the caller must have allowance for ``from``'s tokens of at least `amount`."
      }
    },
    "version": 1
  },
  "userdoc": {
    "kind": "user",
    "methods": {},
    "version": 1
  }
}