{
  "contractName": "NFT",
  "abi": [
    {
      "inputs": [
        {
          "internalType": "string",
          "name": "_name",
          "type": "string"
        },
        {
          "internalType": "string",
          "name": "_symbol",
          "type": "string"
        }
      ],
      "stateMutability": "nonpayable",
      "type": "constructor"
    },
    {
      "anonymous": false,
      "inputs": [
        {
          "indexed": true,
          "internalType": "address",
          "name": "owner",
          "type": "address"
        },
        {
          "indexed": true,
          "internalType": "address",
          "name": "approved",
          "type": "address"
        },
        {
          "indexed": true,
          "internalType": "uint256",
          "name": "tokenId",
          "type": "uint256"
        }
      ],
      "name": "Approval",
      "type": "event"
    },
    {
      "anonymous": false,
      "inputs": [
        {
          "indexed": true,
          "internalType": "address",
          "name": "owner",
          "type": "address"
        },
        {
          "indexed": true,
          "internalType": "address",
          "name": "operator",
          "type": "address"
        },
        {
          "indexed": false,
          "internalType": "bool",
          "name": "approved",
          "type": "bool"
        }
      ],
      "name": "ApprovalForAll",
      "type": "event"
    },
    {
      "anonymous": false,
      "inputs": [
        {
          "indexed": true,
          "internalType": "address",
          "name": "from",
          "type": "address"
        },
        {
          "indexed": true,
          "internalType": "address",
          "name": "to",
          "type": "address"
        },
        {
          "indexed": true,
          "internalType": "uint256",
          "name": "tokenId",
          "type": "uint256"
        }
      ],
      "name": "Transfer",
      "type": "event"
    },
    {
      "inputs": [
        {
          "internalType": "address",
          "name": "to",
          "type": "address"
        },
        {
          "internalType": "uint256",
          "name": "tokenId",
          "type": "uint256"
        }
      ],
      "name": "approve",
      "outputs": [],
      "stateMutability": "nonpayable",
      "type": "function"
    },
    {
      "inputs": [
        {
          "internalType": "address",
          "name": "owner",
          "type": "address"
        }
      ],
      "name": "balanceOf",
      "outputs": [
        {
          "internalType": "uint256",
          "name": "",
          "type": "uint256"
        }
      ],
      "stateMutability": "view",
      "type": "function",
      "constant": true
    },
    {
      "inputs": [
        {
          "internalType": "uint256",
          "name": "tokenId",
          "type": "uint256"
        }
      ],
      "name": "getApproved",
      "outputs": [
        {
          "internalType": "address",
          "name": "",
          "type": "address"
        }
      ],
      "stateMutability": "view",
      "type": "function",
      "constant": true
    },
    {
      "inputs": [
        {
          "internalType": "address",
          "name": "owner",
          "type": "address"
        },
        {
          "internalType": "address",
          "name": "operator",
          "type": "address"
        }
      ],
      "name": "isApprovedForAll",
      "outputs": [
        {
          "internalType": "bool",
          "name": "",
          "type": "bool"
        }
      ],
      "stateMutability": "view",
      "type": "function",
      "constant": true
    },
    {
      "inputs": [],
      "name": "name",
      "outputs": [
        {
          "internalType": "string",
          "name": "",
          "type": "string"
        }
      ],
      "stateMutability": "view",
      "type": "function",
      "constant": true
    },
    {
      "inputs": [
        {
          "internalType": "uint256",
          "name": "tokenId",
          "type": "uint256"
        }
      ],
      "name": "ownerOf",
      "outputs": [
        {
          "internalType": "address",
          "name": "",
          "type": "address"
        }
      ],
      "stateMutability": "view",
      "type": "function",
      "constant": true
    },
    {
      "inputs": [
        {
          "internalType": "address",
          "name": "from",
          "type": "address"
        },
        {
          "internalType": "address",
          "name": "to",
          "type": "address"
        },
        {
          "internalType": "uint256",
          "name": "tokenId",
          "type": "uint256"
        }
      ],
      "name": "safeTransferFrom",
      "outputs": [],
      "stateMutability": "nonpayable",
      "type": "function"
    },
    {
      "inputs": [
        {
          "internalType": "address",
          "name": "from",
          "type": "address"
        },
        {
          "internalType": "address",
          "name": "to",
          "type": "address"
        },
        {
          "internalType": "uint256",
          "name": "tokenId",
          "type": "uint256"
        },
        {
          "internalType": "bytes",
          "name": "data",
          "type": "bytes"
        }
      ],
      "name": "safeTransferFrom",
      "outputs": [],
      "stateMutability": "nonpayable",
      "type": "function"
    },
    {
      "inputs": [
        {
          "internalType": "address",
          "name": "operator",
          "type": "address"
        },
        {
          "internalType": "bool",
          "name": "approved",
          "type": "bool"
        }
      ],
      "name": "setApprovalForAll",
      "outputs": [],
      "stateMutability": "nonpayable",
      "type": "function"
    },
    {
      "inputs": [
        {
          "internalType": "bytes4",
          "name": "interfaceId",
          "type": "bytes4"
        }
      ],
      "name": "supportsInterface",
      "outputs": [
        {
          "internalType": "bool",
          "name": "",
          "type": "bool"
        }
      ],
      "stateMutability": "view",
      "type": "function",
      "constant": true
    },
    {
      "inputs": [],
      "name": "symbol",
      "outputs": [
        {
          "internalType": "string",
          "name": "",
          "type": "string"
        }
      ],
      "stateMutability": "view",
      "type": "function",
      "constant": true
    },
    {
      "inputs": [
        {
          "internalType": "address",
          "name": "from",
          "type": "address"
        },
        {
          "internalType": "address",
          "name": "to",
          "type": "address"
        },
        {
          "internalType": "uint256",
          "name": "tokenId",
          "type": "uint256"
        }
      ],
      "name": "transferFrom",
      "outputs": [],
      "stateMutability": "nonpayable",
      "type": "function"
    },
    {
      "inputs": [
        {
          "internalType": "address",
          "name": "_to",
          "type": "address"
        },
        {
          "internalType": "uint256",
          "name": "_tokenId",
          "type": "uint256"
        },
        {
          "internalType": "string",
          "name": "_tokenURI",
          "type": "string"
        }
      ],
      "name": "mint",
      "outputs": [],
      "stateMutability": "nonpayable",
      "type": "function"
    },
    {
      "inputs": [
        {
          "internalType": "uint256",
          "name": "_tokenId",
          "type": "uint256"
        }
      ],
      "name": "tokenURI",
      "outputs": [
        {
          "internalType": "string",
          "name": "",
          "type": "string"
        }
      ],
      "stateMutability": "view",
      "type": "function",
      "constant": true
    }
  ],
  "bytecode": "0x60806040523480156200001157600080fd5b506040516200277e3803806200277e8339818101604052810190620000379190620002c2565b818181600090805190602001906200005192919062000075565b5080600190805190602001906200006a92919062000075565b5050505050620003ab565b828054620000839062000376565b90600052602060002090601f016020900481019282620000a75760008555620000f3565b82601f10620000c257805160ff1916838001178555620000f3565b82800160010185558215620000f3579182015b82811115620000f2578251825591602001919060010190620000d5565b5b50905062000102919062000106565b5090565b5b808211156200012157600081600090555060010162000107565b5090565b6000604051905090565b600080fd5b600080fd5b600080fd5b600080fd5b6000601f19601f8301169050919050565b7f4e487b7100000000000000000000000000000000000000000000000000000000600052604160045260246000fd5b6200018e8262000143565b810181811067ffffffffffffffff82111715620001b057620001af62000154565b5b80604052505050565b6000620001c562000125565b9050620001d3828262000183565b919050565b600067ffffffffffffffff821115620001f657620001f562000154565b5b620002018262000143565b9050602081019050919050565b60005b838110156200022e57808201518184015260208101905062000211565b838111156200023e576000848401525b50505050565b60006200025b6200025584620001d8565b620001b9565b9050828152602081018484840111156200027a57620002796200013e565b5b620002878482856200020e565b509392505050565b600082601f830112620002a757620002a662000139565b5b8151620002b984826020860162000244565b91505092915050565b60008060408385031215620002dc57620002db6200012f565b5b600083015167ffffffffffffffff811115620002fd57620002fc62000134565b5b6200030b858286016200028f565b925050602083015167ffffffffffffffff8111156200032f576200032e62000134565b5b6200033d858286016200028f565b9150509250929050565b7f4e487b7100000000000000000000000000000000000000000000000000000000600052602260045260246000fd5b600060028204905060018216806200038f57607f821691505b602082108103620003a557620003a462000347565b5b50919050565b6123c380620003bb6000396000f3fe608060405234801561001057600080fd5b50600436106100ea5760003560e01c806370a082311161008c578063b88d4fde11610066578063b88d4fde1461025b578063c87b56dd14610277578063d3fc9864146102a7578063e985e9c5146102c3576100ea565b806370a08231146101f157806395d89b4114610221578063a22cb4651461023f576100ea565b8063095ea7b3116100c8578063095ea7b31461016d57806323b872dd1461018957806342842e0e146101a55780636352211e146101c1576100ea565b806301ffc9a7146100ef57806306fdde031461011f578063081812fc1461013d575b600080fd5b61010960048036038101906101049190611635565b6102f3565b604051610116919061167d565b60405180910390f35b6101276103d5565b6040516101349190611731565b60405180910390f35b61015760048036038101906101529190611789565b610467565b60405161016491906117f7565b60405180910390f35b6101876004803603810190610182919061183e565b6104ad565b005b6101a3600480360381019061019e919061187e565b6105c4565b005b6101bf60048036038101906101ba919061187e565b610624565b005b6101db60048036038101906101d69190611789565b610644565b6040516101e891906117f7565b60405180910390f35b61020b600480360381019061020691906118d1565b6106ca565b604051610218919061190d565b60405180910390f35b610229610781565b6040516102369190611731565b60405180910390f35b61025960048036038101906102549190611954565b610813565b005b61027560048036038101906102709190611ac9565b610829565b005b610291600480360381019061028c9190611789565b61088b565b60405161029e9190611731565b60405180910390f35b6102c160048036038101906102bc9190611bed565b610930565b005b6102dd60048036038101906102d89190611c5c565b610949565b6040516102ea919061167d565b60405180910390f35b60007f80ac58cd000000000000000000000000000000000000000000000000000000007bffffffffffffffffffffffffffffffffffffffffffffffffffffffff1916827bffffffffffffffffffffffffffffffffffffffffffffffffffffffff191614806103be57507f5b5e139f000000000000000000000000000000000000000000000000000000007bffffffffffffffffffffffffffffffffffffffffffffffffffffffff1916827bffffffffffffffffffffffffffffffffffffffffffffffffffffffff1916145b806103ce57506103cd826109dd565b5b9050919050565b6060600080546103e490611ccb565b80601f016020809104026020016040519081016040528092919081815260200182805461041090611ccb565b801561045d5780601f106104325761010080835404028352916020019161045d565b820191906000526020600020905b81548152906001019060200180831161044057829003601f168201915b5050505050905090565b600061047282610a47565b6004600083815260200190815260200160002060009054906101000a900473ffffffffffffffffffffffffffffffffffffffff169050919050565b60006104b882610644565b90508073ffffffffffffffffffffffffffffffffffffffff168373ffffffffffffffffffffffffffffffffffffffff1603610528576040517f08c379a000000000000000000000000000000000000000000000000000000000815260040161051f90611d6e565b60405180910390fd5b8073ffffffffffffffffffffffffffffffffffffffff16610547610a92565b73ffffffffffffffffffffffffffffffffffffffff161480610576575061057581610570610a92565b610949565b5b6105b5576040517f08c379a00000000000000000000000000000000000000000000000000000000081526004016105ac90611e00565b60405180910390fd5b6105bf8383610a9a565b505050565b6105d56105cf610a92565b82610b53565b610614576040517f08c379a000000000000000000000000000000000000000000000000000000000815260040161060b90611e92565b60405180910390fd5b61061f838383610be8565b505050565b61063f83838360405180602001604052806000815250610829565b505050565b60008061065083610ee1565b9050600073ffffffffffffffffffffffffffffffffffffffff168173ffffffffffffffffffffffffffffffffffffffff16036106c1576040517f08c379a00000000000000000000000000000000000000000000000000000000081526004016106b890611efe565b60405180910390fd5b80915050919050565b60008073ffffffffffffffffffffffffffffffffffffffff168273ffffffffffffffffffffffffffffffffffffffff160361073a576040517f08c379a000000000000000000000000000000000000000000000000000000000815260040161073190611f90565b60405180910390fd5b600360008373ffffffffffffffffffffffffffffffffffffffff1673ffffffffffffffffffffffffffffffffffffffff168152602001908152602001600020549050919050565b60606001805461079090611ccb565b80601f01602080910402602001604051908101604052809291908181526020018280546107bc90611ccb565b80156108095780601f106107de57610100808354040283529160200191610809565b820191906000526020600020905b8154815290600101906020018083116107ec57829003601f168201915b5050505050905090565b61082561081e610a92565b8383610f1e565b5050565b61083a610834610a92565b83610b53565b610879576040517f08c379a000000000000000000000000000000000000000000000000000000000815260040161087090611e92565b60405180910390fd5b6108858484848461108a565b50505050565b60606006600083815260200190815260200160002080546108ab90611ccb565b80601f01602080910402602001604051908101604052809291908181526020018280546108d790611ccb565b80156109245780601f106108f957610100808354040283529160200191610924565b820191906000526020600020905b81548152906001019060200180831161090757829003601f168201915b50505050509050919050565b61093a83836110e6565b6109448282611303565b505050565b6000600560008473ffffffffffffffffffffffffffffffffffffffff1673ffffffffffffffffffffffffffffffffffffffff16815260200190815260200160002060008373ffffffffffffffffffffffffffffffffffffffff1673ffffffffffffffffffffffffffffffffffffffff16815260200190815260200160002060009054906101000a900460ff16905092915050565b60007f01ffc9a7000000000000000000000000000000000000000000000000000000007bffffffffffffffffffffffffffffffffffffffffffffffffffffffff1916827bffffffffffffffffffffffffffffffffffffffffffffffffffffffff1916149050919050565b610a508161132f565b610a8f576040517f08c379a0000000000000000000000000000000000000000000000000000000008152600401610a8690611efe565b60405180910390fd5b50565b600033905090565b816004600083815260200190815260200160002060006101000a81548173ffffffffffffffffffffffffffffffffffffffff021916908373ffffffffffffffffffffffffffffffffffffffff160217905550808273ffffffffffffffffffffffffffffffffffffffff16610b0d83610644565b73ffffffffffffffffffffffffffffffffffffffff167f8c5be1e5ebec7d5bd14f71427d1e84f3dd0314c0f7b2291e5b200ac8c7c3b92560405160405180910390a45050565b600080610b5f83610644565b90508073ffffffffffffffffffffffffffffffffffffffff168473ffffffffffffffffffffffffffffffffffffffff161480610ba15750610ba08185610949565b5b80610bdf57508373ffffffffffffffffffffffffffffffffffffffff16610bc784610467565b73ffffffffffffffffffffffffffffffffffffffff16145b91505092915050565b8273ffffffffffffffffffffffffffffffffffffffff16610c0882610644565b73ffffffffffffffffffffffffffffffffffffffff1614610c5e576040517f08c379a0000000000000000000000000000000000000000000000000000000008152600401610c5590612022565b60405180910390fd5b600073ffffffffffffffffffffffffffffffffffffffff168273ffffffffffffffffffffffffffffffffffffffff1603610ccd576040517f08c379a0000000000000000000000000000000000000000000000000000000008152600401610cc4906120b4565b60405180910390fd5b610cda8383836001611370565b8273ffffffffffffffffffffffffffffffffffffffff16610cfa82610644565b73ffffffffffffffffffffffffffffffffffffffff1614610d50576040517f08c379a0000000000000000000000000000000000000000000000000000000008152600401610d4790612022565b60405180910390fd5b6004600082815260200190815260200160002060006101000a81549073ffffffffffffffffffffffffffffffffffffffff02191690556001600360008573ffffffffffffffffffffffffffffffffffffffff1673ffffffffffffffffffffffffffffffffffffffff168152602001908152602001600020600082825403925050819055506001600360008473ffffffffffffffffffffffffffffffffffffffff1673ffffffffffffffffffffffffffffffffffffffff16815260200190815260200160002060008282540192505081905550816002600083815260200190815260200160002060006101000a81548173ffffffffffffffffffffffffffffffffffffffff021916908373ffffffffffffffffffffffffffffffffffffffff160217905550808273ffffffffffffffffffffffffffffffffffffffff168473ffffffffffffffffffffffffffffffffffffffff167fddf252ad1be2c89b69c2b068fc378daa952ba7f163c4a11628f55a4df523b3ef60405160405180910390a4610edc8383836001611376565b505050565b60006002600083815260200190815260200160002060009054906101000a900473ffffffffffffffffffffffffffffffffffffffff169050919050565b8173ffffffffffffffffffffffffffffffffffffffff168373ffffffffffffffffffffffffffffffffffffffff1603610f8c576040517f08c379a0000000000000000000000000000000000000000000000000000000008152600401610f8390612120565b60405180910390fd5b80600560008573ffffffffffffffffffffffffffffffffffffffff1673ffffffffffffffffffffffffffffffffffffffff16815260200190815260200160002060008473ffffffffffffffffffffffffffffffffffffffff1673ffffffffffffffffffffffffffffffffffffffff16815260200190815260200160002060006101000a81548160ff0219169083151502179055508173ffffffffffffffffffffffffffffffffffffffff168373ffffffffffffffffffffffffffffffffffffffff167f17307eab39ab6107e8899845ad3d59bd9653f200f220920489ca2b5937696c318360405161107d919061167d565b60405180910390a3505050565b611095848484610be8565b6110a18484848461137c565b6110e0576040517f08c379a00000000000000000000000000000000000000000000000000000000081526004016110d7906121b2565b60405180910390fd5b50505050565b600073ffffffffffffffffffffffffffffffffffffffff168273ffffffffffffffffffffffffffffffffffffffff1603611155576040517f08c379a000000000000000000000000000000000000000000000000000000000815260040161114c9061221e565b60405180910390fd5b61115e8161132f565b1561119e576040517f08c379a00000000000000000000000000000000000000000000000000000000081526004016111959061228a565b60405180910390fd5b6111ac600083836001611370565b6111b58161132f565b156111f5576040517f08c379a00000000000000000000000000000000000000000000000000000000081526004016111ec9061228a565b60405180910390fd5b6001600360008473ffffffffffffffffffffffffffffffffffffffff1673ffffffffffffffffffffffffffffffffffffffff16815260200190815260200160002060008282540192505081905550816002600083815260200190815260200160002060006101000a81548173ffffffffffffffffffffffffffffffffffffffff021916908373ffffffffffffffffffffffffffffffffffffffff160217905550808273ffffffffffffffffffffffffffffffffffffffff16600073ffffffffffffffffffffffffffffffffffffffff167fddf252ad1be2c89b69c2b068fc378daa952ba7f163c4a11628f55a4df523b3ef60405160405180910390a46112ff600083836001611376565b5050565b8060066000848152602001908152602001600020908051906020019061132a929190611526565b505050565b60008073ffffffffffffffffffffffffffffffffffffffff1661135183610ee1565b73ffffffffffffffffffffffffffffffffffffffff1614159050919050565b50505050565b50505050565b600061139d8473ffffffffffffffffffffffffffffffffffffffff16611503565b156114f6578373ffffffffffffffffffffffffffffffffffffffff1663150b7a026113c6610a92565b8786866040518563ffffffff1660e01b81526004016113e894939291906122ff565b6020604051808303816000875af192505050801561142457506040513d601f19601f820116820180604052508101906114219190612360565b60015b6114a6573d8060008114611454576040519150601f19603f3d011682016040523d82523d6000602084013e611459565b606091505b50600081510361149e576040517f08c379a0000000000000000000000000000000000000000000000000000000008152600401611495906121b2565b60405180910390fd5b805181602001fd5b63150b7a0260e01b7bffffffffffffffffffffffffffffffffffffffffffffffffffffffff1916817bffffffffffffffffffffffffffffffffffffffffffffffffffffffff1916149150506114fb565b600190505b949350505050565b6000808273ffffffffffffffffffffffffffffffffffffffff163b119050919050565b82805461153290611ccb565b90600052602060002090601f016020900481019282611554576000855561159b565b82601f1061156d57805160ff191683800117855561159b565b8280016001018555821561159b579182015b8281111561159a57825182559160200191906001019061157f565b5b5090506115a891906115ac565b5090565b5b808211156115c55760008160009055506001016115ad565b5090565b6000604051905090565b600080fd5b600080fd5b60007fffffffff0000000000000000000000000000000000000000000000000000000082169050919050565b611612816115dd565b811461161d57600080fd5b50565b60008135905061162f81611609565b92915050565b60006020828403121561164b5761164a6115d3565b5b600061165984828501611620565b91505092915050565b60008115159050919050565b61167781611662565b82525050565b6000602082019050611692600083018461166e565b92915050565b600081519050919050565b600082825260208201905092915050565b60005b838110156116d25780820151818401526020810190506116b7565b838111156116e1576000848401525b50505050565b6000601f19601f8301169050919050565b600061170382611698565b61170d81856116a3565b935061171d8185602086016116b4565b611726816116e7565b840191505092915050565b6000602082019050818103600083015261174b81846116f8565b905092915050565b6000819050919050565b61176681611753565b811461177157600080fd5b50565b6000813590506117838161175d565b92915050565b60006020828403121561179f5761179e6115d3565b5b60006117ad84828501611774565b91505092915050565b600073ffffffffffffffffffffffffffffffffffffffff82169050919050565b60006117e1826117b6565b9050919050565b6117f1816117d6565b82525050565b600060208201905061180c60008301846117e8565b92915050565b61181b816117d6565b811461182657600080fd5b50565b60008135905061183881611812565b92915050565b60008060408385031215611855576118546115d3565b5b600061186385828601611829565b925050602061187485828601611774565b9150509250929050565b600080600060608486031215611897576118966115d3565b5b60006118a586828701611829565b93505060206118b686828701611829565b92505060406118c786828701611774565b9150509250925092565b6000602082840312156118e7576118e66115d3565b5b60006118f584828501611829565b91505092915050565b61190781611753565b82525050565b600060208201905061192260008301846118fe565b92915050565b61193181611662565b811461193c57600080fd5b50565b60008135905061194e81611928565b92915050565b6000806040838503121561196b5761196a6115d3565b5b600061197985828601611829565b925050602061198a8582860161193f565b9150509250929050565b600080fd5b600080fd5b7f4e487b7100000000000000000000000000000000000000000000000000000000600052604160045260246000fd5b6119d6826116e7565b810181811067ffffffffffffffff821117156119f5576119f461199e565b5b80604052505050565b6000611a086115c9565b9050611a1482826119cd565b919050565b600067ffffffffffffffff821115611a3457611a3361199e565b5b611a3d826116e7565b9050602081019050919050565b82818337600083830152505050565b6000611a6c611a6784611a19565b6119fe565b905082815260208101848484011115611a8857611a87611999565b5b611a93848285611a4a565b509392505050565b600082601f830112611ab057611aaf611994565b5b8135611ac0848260208601611a59565b91505092915050565b60008060008060808587031215611ae357611ae26115d3565b5b6000611af187828801611829565b9450506020611b0287828801611829565b9350506040611b1387828801611774565b925050606085013567ffffffffffffffff811115611b3457611b336115d8565b5b611b4087828801611a9b565b91505092959194509250565b600067ffffffffffffffff821115611b6757611b6661199e565b5b611b70826116e7565b9050602081019050919050565b6000611b90611b8b84611b4c565b6119fe565b905082815260208101848484011115611bac57611bab611999565b5b611bb7848285611a4a565b509392505050565b600082601f830112611bd457611bd3611994565b5b8135611be4848260208601611b7d565b91505092915050565b600080600060608486031215611c0657611c056115d3565b5b6000611c1486828701611829565b9350506020611c2586828701611774565b925050604084013567ffffffffffffffff811115611c4657611c456115d8565b5b611c5286828701611bbf565b9150509250925092565b60008060408385031215611c7357611c726115d3565b5b6000611c8185828601611829565b9250506020611c9285828601611829565b9150509250929050565b7f4e487b7100000000000000000000000000000000000000000000000000000000600052602260045260246000fd5b60006002820490506001821680611ce357607f821691505b602082108103611cf657611cf5611c9c565b5b50919050565b7f4552433732313a20617070726f76616c20746f2063757272656e74206f776e6560008201527f7200000000000000000000000000000000000000000000000000000000000000602082015250565b6000611d586021836116a3565b9150611d6382611cfc565b604082019050919050565b60006020820190508181036000830152611d8781611d4b565b9050919050565b7f4552433732313a20617070726f76652063616c6c6572206973206e6f7420746f60008201527f6b656e206f776e6572206f7220617070726f76656420666f7220616c6c000000602082015250565b6000611dea603d836116a3565b9150611df582611d8e565b604082019050919050565b60006020820190508181036000830152611e1981611ddd565b9050919050565b7f4552433732313a2063616c6c6572206973206e6f7420746f6b656e206f776e6560008201527f72206f7220617070726f76656400000000000000000000000000000000000000602082015250565b6000611e7c602d836116a3565b9150611e8782611e20565b604082019050919050565b60006020820190508181036000830152611eab81611e6f565b9050919050565b7f4552433732313a20696e76616c696420746f6b656e2049440000000000000000600082015250565b6000611ee86018836116a3565b9150611ef382611eb2565b602082019050919050565b60006020820190508181036000830152611f1781611edb565b9050919050565b7f4552433732313a2061646472657373207a65726f206973206e6f74206120766160008201527f6c6964206f776e65720000000000000000000000000000000000000000000000602082015250565b6000611f7a6029836116a3565b9150611f8582611f1e565b604082019050919050565b60006020820190508181036000830152611fa981611f6d565b9050919050565b7f4552433732313a207472616e736665722066726f6d20696e636f72726563742060008201527f6f776e6572000000000000000000000000000000000000000000000000000000602082015250565b600061200c6025836116a3565b915061201782611fb0565b604082019050919050565b6000602082019050818103600083015261203b81611fff565b9050919050565b7f4552433732313a207472616e7366657220746f20746865207a65726f2061646460008201527f7265737300000000000000000000000000000000000000000000000000000000602082015250565b600061209e6024836116a3565b91506120a982612042565b604082019050919050565b600060208201905081810360008301526120cd81612091565b9050919050565b7f4552433732313a20617070726f766520746f2063616c6c657200000000000000600082015250565b600061210a6019836116a3565b9150612115826120d4565b602082019050919050565b60006020820190508181036000830152612139816120fd565b9050919050565b7f4552433732313a207472616e7366657220746f206e6f6e20455243373231526560008201527f63656976657220696d706c656d656e7465720000000000000000000000000000602082015250565b600061219c6032836116a3565b91506121a782612140565b604082019050919050565b600060208201905081810360008301526121cb8161218f565b9050919050565b7f4552433732313a206d696e7420746f20746865207a65726f2061646472657373600082015250565b60006122086020836116a3565b9150612213826121d2565b602082019050919050565b60006020820190508181036000830152612237816121fb565b9050919050565b7f4552433732313a20746f6b656e20616c7265616479206d696e74656400000000600082015250565b6000612274601c836116a3565b915061227f8261223e565b602082019050919050565b600060208201905081810360008301526122a381612267565b9050919050565b600081519050919050565b600082825260208201905092915050565b60006122d1826122aa565b6122db81856122b5565b93506122eb8185602086016116b4565b6122f4816116e7565b840191505092915050565b600060808201905061231460008301876117e8565b61232160208301866117e8565b61232e60408301856118fe565b818103606083015261234081846122c6565b905095945050505050565b60008151905061235a81611609565b92915050565b600060208284031215612376576123756115d3565b5b60006123848482850161234b565b9150509291505056fea26469706673582212202bf863b4c1933ae0f4b09e85dc0f9137b4b25979097057252c7cdd9efe58ff3a64736f6c634300080d0033",
  "immutableReferences": {},
  "source": "// SPDX-License-Identifier: UNLICENSED\npragma solidity 0.8.13;\n\nimport \"@openzeppelin/contracts/token/ERC721/ERC721.sol\";\n\ncontract NFT is ERC721 {\n    constructor(string memory _name, string memory _symbol) ERC721(_name, _symbol) {}\n\n    function mint(address _to, uint256 _tokenId, string memory _tokenURI) external {\n        _mint(_to, _tokenId);\n        _setTokenURI(_tokenId, _tokenURI);\n    }\n\n    function _setTokenURI(uint256 _tokenId, string memory _tokenURI) internal {\n        _tokenURIs[_tokenId] = _tokenURI;\n    }\n\n    mapping(uint256 => string) private _tokenURIs;\n    function tokenURI(uint256 _tokenId) public view override returns (string memory) {\n        return _tokenURIs[_tokenId];\n    }\n}\n",
  "sourcePath": "/Users/hirosekento/Test/Dev/Solidity/DeFi-Sample-sol/contracts/NftMint.sol",
  "compiler": {
    "name": "solc",
    "version": "0.8.13+commit.abaa5c0e.Emscripten.clang"
  },
  "schemaVersion": "3.4.14",
  "updatedAt": "2023-08-14T01:33:20.659Z",
  "networkType": "ethereum",
  "devdoc": {
    "kind": "dev",
    "methods": {
      "approve(address,uint256)": {
        "details": "See {IERC721-approve}."
      },
      "balanceOf(address)": {
        "details": "See {IERC721-balanceOf}."
      },
      "getApproved(uint256)": {
        "details": "See {IERC721-getApproved}."
      },
      "isApprovedForAll(address,address)": {
        "details": "See {IERC721-isApprovedForAll}."
      },
      "name()": {
        "details": "See {IERC721Metadata-name}."
      },
      "ownerOf(uint256)": {
        "details": "See {IERC721-ownerOf}."
      },
      "safeTransferFrom(address,address,uint256)": {
        "details": "See {IERC721-safeTransferFrom}."
      },
      "safeTransferFrom(address,address,uint256,bytes)": {
        "details": "See {IERC721-safeTransferFrom}."
      },
      "setApprovalForAll(address,bool)": {
        "details": "See {IERC721-setApprovalForAll}."
      },
      "supportsInterface(bytes4)": {
        "details": "See {IERC165-supportsInterface}."
      },
      "symbol()": {
        "details": "See {IERC721Metadata-symbol}."
      },
      "transferFrom(address,address,uint256)": {
        "details": "See {IERC721-transferFrom}."
      }
    },
    "version": 1
  },
  "userdoc": {
    "kind": "user",
    "methods": {},
    "version": 1
  }
}