{
  "contractName": "NFT",
  "abi": [
    {
      "inputs": [
        {
          "internalType": "string",
          "name": "_name",
          "type": "string"
        },
        {
          "internalType": "string",
          "name": "_symbol",
          "type": "string"
        }
      ],
      "stateMutability": "nonpayable",
      "type": "constructor"
    },
    {
      "anonymous": false,
      "inputs": [
        {
          "indexed": true,
          "internalType": "address",
          "name": "owner",
          "type": "address"
        },
        {
          "indexed": true,
          "internalType": "address",
          "name": "approved",
          "type": "address"
        },
        {
          "indexed": true,
          "internalType": "uint256",
          "name": "tokenId",
          "type": "uint256"
        }
      ],
      "name": "Approval",
      "type": "event"
    },
    {
      "anonymous": false,
      "inputs": [
        {
          "indexed": true,
          "internalType": "address",
          "name": "owner",
          "type": "address"
        },
        {
          "indexed": true,
          "internalType": "address",
          "name": "operator",
          "type": "address"
        },
        {
          "indexed": false,
          "internalType": "bool",
          "name": "approved",
          "type": "bool"
        }
      ],
      "name": "ApprovalForAll",
      "type": "event"
    },
    {
      "anonymous": false,
      "inputs": [
        {
          "indexed": true,
          "internalType": "address",
          "name": "from",
          "type": "address"
        },
        {
          "indexed": true,
          "internalType": "address",
          "name": "to",
          "type": "address"
        },
        {
          "indexed": true,
          "internalType": "uint256",
          "name": "tokenId",
          "type": "uint256"
        }
      ],
      "name": "Transfer",
      "type": "event"
    },
    {
      "inputs": [
        {
          "internalType": "address",
          "name": "to",
          "type": "address"
        },
        {
          "internalType": "uint256",
          "name": "tokenId",
          "type": "uint256"
        }
      ],
      "name": "approve",
      "outputs": [],
      "stateMutability": "nonpayable",
      "type": "function"
    },
    {
      "inputs": [
        {
          "internalType": "address",
          "name": "owner",
          "type": "address"
        }
      ],
      "name": "balanceOf",
      "outputs": [
        {
          "internalType": "uint256",
          "name": "",
          "type": "uint256"
        }
      ],
      "stateMutability": "view",
      "type": "function",
      "constant": true
    },
    {
      "inputs": [
        {
          "internalType": "uint256",
          "name": "tokenId",
          "type": "uint256"
        }
      ],
      "name": "getApproved",
      "outputs": [
        {
          "internalType": "address",
          "name": "",
          "type": "address"
        }
      ],
      "stateMutability": "view",
      "type": "function",
      "constant": true
    },
    {
      "inputs": [
        {
          "internalType": "address",
          "name": "owner",
          "type": "address"
        },
        {
          "internalType": "address",
          "name": "operator",
          "type": "address"
        }
      ],
      "name": "isApprovedForAll",
      "outputs": [
        {
          "internalType": "bool",
          "name": "",
          "type": "bool"
        }
      ],
      "stateMutability": "view",
      "type": "function",
      "constant": true
    },
    {
      "inputs": [],
      "name": "name",
      "outputs": [
        {
          "internalType": "string",
          "name": "",
          "type": "string"
        }
      ],
      "stateMutability": "view",
      "type": "function",
      "constant": true
    },
    {
      "inputs": [
        {
          "internalType": "uint256",
          "name": "tokenId",
          "type": "uint256"
        }
      ],
      "name": "ownerOf",
      "outputs": [
        {
          "internalType": "address",
          "name": "",
          "type": "address"
        }
      ],
      "stateMutability": "view",
      "type": "function",
      "constant": true
    },
    {
      "inputs": [],
      "name": "productCount",
      "outputs": [
        {
          "internalType": "uint16",
          "name": "",
          "type": "uint16"
        }
      ],
      "stateMutability": "view",
      "type": "function",
      "constant": true
    },
    {
      "inputs": [
        {
          "internalType": "uint256",
          "name": "",
          "type": "uint256"
        }
      ],
      "name": "products",
      "outputs": [
        {
          "internalType": "string",
          "name": "name",
          "type": "string"
        },
        {
          "internalType": "string",
          "name": "image",
          "type": "string"
        },
        {
          "internalType": "string",
          "name": "description",
          "type": "string"
        },
        {
          "internalType": "uint16",
          "name": "price",
          "type": "uint16"
        },
        {
          "internalType": "address",
          "name": "seller",
          "type": "address"
        }
      ],
      "stateMutability": "view",
      "type": "function",
      "constant": true
    },
    {
      "inputs": [
        {
          "internalType": "address",
          "name": "from",
          "type": "address"
        },
        {
          "internalType": "address",
          "name": "to",
          "type": "address"
        },
        {
          "internalType": "uint256",
          "name": "tokenId",
          "type": "uint256"
        }
      ],
      "name": "safeTransferFrom",
      "outputs": [],
      "stateMutability": "nonpayable",
      "type": "function"
    },
    {
      "inputs": [
        {
          "internalType": "address",
          "name": "from",
          "type": "address"
        },
        {
          "internalType": "address",
          "name": "to",
          "type": "address"
        },
        {
          "internalType": "uint256",
          "name": "tokenId",
          "type": "uint256"
        },
        {
          "internalType": "bytes",
          "name": "data",
          "type": "bytes"
        }
      ],
      "name": "safeTransferFrom",
      "outputs": [],
      "stateMutability": "nonpayable",
      "type": "function"
    },
    {
      "inputs": [
        {
          "internalType": "address",
          "name": "operator",
          "type": "address"
        },
        {
          "internalType": "bool",
          "name": "approved",
          "type": "bool"
        }
      ],
      "name": "setApprovalForAll",
      "outputs": [],
      "stateMutability": "nonpayable",
      "type": "function"
    },
    {
      "inputs": [
        {
          "internalType": "bytes4",
          "name": "interfaceId",
          "type": "bytes4"
        }
      ],
      "name": "supportsInterface",
      "outputs": [
        {
          "internalType": "bool",
          "name": "",
          "type": "bool"
        }
      ],
      "stateMutability": "view",
      "type": "function",
      "constant": true
    },
    {
      "inputs": [],
      "name": "symbol",
      "outputs": [
        {
          "internalType": "string",
          "name": "",
          "type": "string"
        }
      ],
      "stateMutability": "view",
      "type": "function",
      "constant": true
    },
    {
      "inputs": [
        {
          "internalType": "address",
          "name": "from",
          "type": "address"
        },
        {
          "internalType": "address",
          "name": "to",
          "type": "address"
        },
        {
          "internalType": "uint256",
          "name": "tokenId",
          "type": "uint256"
        }
      ],
      "name": "transferFrom",
      "outputs": [],
      "stateMutability": "nonpayable",
      "type": "function"
    },
    {
      "inputs": [],
      "name": "initStockData",
      "outputs": [],
      "stateMutability": "nonpayable",
      "type": "function"
    },
    {
      "inputs": [
        {
          "internalType": "address",
          "name": "_stockholder",
          "type": "address"
        },
        {
          "internalType": "uint16",
          "name": "_stockholding",
          "type": "uint16"
        }
      ],
      "name": "addStockData",
      "outputs": [],
      "stateMutability": "nonpayable",
      "type": "function"
    },
    {
      "inputs": [
        {
          "internalType": "address",
          "name": "_to",
          "type": "address"
        },
        {
          "internalType": "string",
          "name": "_name",
          "type": "string"
        },
        {
          "internalType": "string",
          "name": "_image",
          "type": "string"
        },
        {
          "internalType": "string",
          "name": "_description",
          "type": "string"
        },
        {
          "internalType": "uint16",
          "name": "_price",
          "type": "uint16"
        },
        {
          "internalType": "address",
          "name": "_seller",
          "type": "address"
        }
      ],
      "name": "safeMint",
      "outputs": [],
      "stateMutability": "nonpayable",
      "type": "function"
    },
    {
      "inputs": [
        {
          "internalType": "uint256",
          "name": "_tokenId",
          "type": "uint256"
        }
      ],
      "name": "tokenURI",
      "outputs": [
        {
          "internalType": "string",
          "name": "",
          "type": "string"
        }
      ],
      "stateMutability": "view",
      "type": "function",
      "constant": true
    }
  ],
  "bytecode": "0x60806040526000600660006101000a81548161ffff021916908361ffff1602179055503480156200002f57600080fd5b5060405162004310380380620043108339818101604052810190620000559190620002e0565b818181600090805190602001906200006f92919062000093565b5080600190805190602001906200008892919062000093565b5050505050620003c9565b828054620000a19062000394565b90600052602060002090601f016020900481019282620000c5576000855562000111565b82601f10620000e057805160ff191683800117855562000111565b8280016001018555821562000111579182015b8281111562000110578251825591602001919060010190620000f3565b5b50905062000120919062000124565b5090565b5b808211156200013f57600081600090555060010162000125565b5090565b6000604051905090565b600080fd5b600080fd5b600080fd5b600080fd5b6000601f19601f8301169050919050565b7f4e487b7100000000000000000000000000000000000000000000000000000000600052604160045260246000fd5b620001ac8262000161565b810181811067ffffffffffffffff82111715620001ce57620001cd62000172565b5b80604052505050565b6000620001e362000143565b9050620001f18282620001a1565b919050565b600067ffffffffffffffff82111562000214576200021362000172565b5b6200021f8262000161565b9050602081019050919050565b60005b838110156200024c5780820151818401526020810190506200022f565b838111156200025c576000848401525b50505050565b6000620002796200027384620001f6565b620001d7565b9050828152602081018484840111156200029857620002976200015c565b5b620002a58482856200022c565b509392505050565b600082601f830112620002c557620002c462000157565b5b8151620002d784826020860162000262565b91505092915050565b60008060408385031215620002fa57620002f96200014d565b5b600083015167ffffffffffffffff8111156200031b576200031a62000152565b5b6200032985828601620002ad565b925050602083015167ffffffffffffffff8111156200034d576200034c62000152565b5b6200035b85828601620002ad565b9150509250929050565b7f4e487b7100000000000000000000000000000000000000000000000000000000600052602260045260246000fd5b60006002820490506001821680620003ad57607f821691505b602082108103620003c357620003c262000365565b5b50919050565b613f3780620003d96000396000f3fe608060405234801561001057600080fd5b50600436106101165760003560e01c806371f492b4116100a2578063b355460b11610071578063b355460b146102e1578063b88d4fde146102fd578063c87b56dd14610319578063e0f6ef8714610349578063e985e9c51461036757610116565b806371f492b4146102575780637acc0b201461027357806395d89b41146102a7578063a22cb465146102c557610116565b80632223fbf8116100e95780632223fbf8146101b557806323b872dd146101bf57806342842e0e146101db5780636352211e146101f757806370a082311461022757610116565b806301ffc9a71461011b57806306fdde031461014b578063081812fc14610169578063095ea7b314610199575b600080fd5b61013560048036038101906101309190612764565b610397565b60405161014291906127ac565b60405180910390f35b610153610479565b6040516101609190612860565b60405180910390f35b610183600480360381019061017e91906128b8565b61050b565b6040516101909190612926565b60405180910390f35b6101b360048036038101906101ae919061296d565b610551565b005b6101bd610668565b005b6101d960048036038101906101d491906129ad565b61072a565b005b6101f560048036038101906101f091906129ad565b61078a565b005b610211600480360381019061020c91906128b8565b6107aa565b60405161021e9190612926565b60405180910390f35b610241600480360381019061023c9190612a00565b610830565b60405161024e9190612a3c565b60405180910390f35b610271600480360381019061026c9190612bc6565b6108e7565b005b61028d600480360381019061028891906128b8565b610baa565b60405161029e959493929190612cb6565b60405180910390f35b6102af610da6565b6040516102bc9190612860565b60405180910390f35b6102df60048036038101906102da9190612d4a565b610e38565b005b6102fb60048036038101906102f69190612d8a565b610e4e565b005b61031760048036038101906103129190612e6b565b610eff565b005b610333600480360381019061032e91906128b8565b610f61565b6040516103409190612860565b60405180910390f35b6103516111a0565b60405161035e9190612eee565b60405180910390f35b610381600480360381019061037c9190612f09565b6111b4565b60405161038e91906127ac565b60405180910390f35b60007f80ac58cd000000000000000000000000000000000000000000000000000000007bffffffffffffffffffffffffffffffffffffffffffffffffffffffff1916827bffffffffffffffffffffffffffffffffffffffffffffffffffffffff1916148061046257507f5b5e139f000000000000000000000000000000000000000000000000000000007bffffffffffffffffffffffffffffffffffffffffffffffffffffffff1916827bffffffffffffffffffffffffffffffffffffffffffffffffffffffff1916145b80610472575061047182611248565b5b9050919050565b60606000805461048890612f78565b80601f01602080910402602001604051908101604052809291908181526020018280546104b490612f78565b80156105015780601f106104d657610100808354040283529160200191610501565b820191906000526020600020905b8154815290600101906020018083116104e457829003601f168201915b5050505050905090565b6000610516826112b2565b6004600083815260200190815260200160002060009054906101000a900473ffffffffffffffffffffffffffffffffffffffff169050919050565b600061055c826107aa565b90508073ffffffffffffffffffffffffffffffffffffffff168373ffffffffffffffffffffffffffffffffffffffff16036105cc576040517f08c379a00000000000000000000000000000000000000000000000000000000081526004016105c39061301b565b60405180910390fd5b8073ffffffffffffffffffffffffffffffffffffffff166105eb6112fd565b73ffffffffffffffffffffffffffffffffffffffff16148061061a5750610619816106146112fd565b6111b4565b5b610659576040517f08c379a0000000000000000000000000000000000000000000000000000000008152600401610650906130ad565b60405180910390fd5b6106638383611305565b505050565b600067ffffffffffffffff81111561068357610682612a61565b5b6040519080825280602002602001820160405280156106b15781602001602082028036833780820191505090505b50600890805190602001906106c7929190612521565b50600067ffffffffffffffff8111156106e3576106e2612a61565b5b6040519080825280602002602001820160405280156107115781602001602082028036833780820191505090505b50600990805190602001906107279291906125ab565b50565b61073b6107356112fd565b826113be565b61077a576040517f08c379a00000000000000000000000000000000000000000000000000000000081526004016107719061313f565b60405180910390fd5b610785838383611453565b505050565b6107a583838360405180602001604052806000815250610eff565b505050565b6000806107b68361174c565b9050600073ffffffffffffffffffffffffffffffffffffffff168173ffffffffffffffffffffffffffffffffffffffff1603610827576040517f08c379a000000000000000000000000000000000000000000000000000000000815260040161081e906131ab565b60405180910390fd5b80915050919050565b60008073ffffffffffffffffffffffffffffffffffffffff168273ffffffffffffffffffffffffffffffffffffffff16036108a0576040517f08c379a00000000000000000000000000000000000000000000000000000000081526004016108979061323d565b60405180910390fd5b600360008373ffffffffffffffffffffffffffffffffffffffff1673ffffffffffffffffffffffffffffffffffffffff168152602001908152602001600020549050919050565b6006600081819054906101000a900461ffff16809291906109079061328c565b91906101000a81548161ffff021916908361ffff160217905550506000600660009054906101000a900461ffff1661ffff1690506109458782611789565b6040518060e001604052808781526020018681526020018581526020018461ffff1681526020018373ffffffffffffffffffffffffffffffffffffffff1681526020016008805480602002602001604051908101604052809291908181526020018280548015610a0a57602002820191906000526020600020905b8160009054906101000a900473ffffffffffffffffffffffffffffffffffffffff1673ffffffffffffffffffffffffffffffffffffffff16815260200190600101908083116109c0575b505050505081526020016009805480602002602001604051908101604052809291908181526020018280548015610a8857602002820191906000526020600020906000905b82829054906101000a900461ffff1661ffff1681526020019060020190602082600101049283019260010382029150808411610a4f5790505b5050505050815250600760008381526020019081526020016000206000820151816000019080519060200190610abf929190612655565b506020820151816001019080519060200190610adc929190612655565b506040820151816002019080519060200190610af9929190612655565b5060608201518160030160006101000a81548161ffff021916908361ffff16021790555060808201518160030160026101000a81548173ffffffffffffffffffffffffffffffffffffffff021916908373ffffffffffffffffffffffffffffffffffffffff16021790555060a0820151816004019080519060200190610b80929190612521565b5060c0820151816005019080519060200190610b9d9291906125ab565b5090505050505050505050565b6007602052806000526040600020600091509050806000018054610bcd90612f78565b80601f0160208091040260200160405190810160405280929190818152602001828054610bf990612f78565b8015610c465780601f10610c1b57610100808354040283529160200191610c46565b820191906000526020600020905b815481529060010190602001808311610c2957829003601f168201915b505050505090806001018054610c5b90612f78565b80601f0160208091040260200160405190810160405280929190818152602001828054610c8790612f78565b8015610cd45780601f10610ca957610100808354040283529160200191610cd4565b820191906000526020600020905b815481529060010190602001808311610cb757829003601f168201915b505050505090806002018054610ce990612f78565b80601f0160208091040260200160405190810160405280929190818152602001828054610d1590612f78565b8015610d625780601f10610d3757610100808354040283529160200191610d62565b820191906000526020600020905b815481529060010190602001808311610d4557829003601f168201915b5050505050908060030160009054906101000a900461ffff16908060030160029054906101000a900473ffffffffffffffffffffffffffffffffffffffff16905085565b606060018054610db590612f78565b80601f0160208091040260200160405190810160405280929190818152602001828054610de190612f78565b8015610e2e5780601f10610e0357610100808354040283529160200191610e2e565b820191906000526020600020905b815481529060010190602001808311610e1157829003601f168201915b5050505050905090565b610e4a610e436112fd565b83836117a7565b5050565b6008829080600181540180825580915050600190039060005260206000200160009091909190916101000a81548173ffffffffffffffffffffffffffffffffffffffff021916908373ffffffffffffffffffffffffffffffffffffffff16021790555060098190806001815401808255809150506001900390600052602060002090601091828204019190066002029091909190916101000a81548161ffff021916908361ffff1602179055505050565b610f10610f0a6112fd565b836113be565b610f4f576040517f08c379a0000000000000000000000000000000000000000000000000000000008152600401610f469061313f565b60405180910390fd5b610f5b84848484611913565b50505050565b606061117a600760008481526020019081526020016000206000016007600085815260200190815260200160002060010160076000868152602001908152602001600020600201610fd96007600088815260200190815260200160002060030160009054906101000a900461ffff1661ffff1661196f565b6110186007600089815260200190815260200160002060030160029054906101000a900473ffffffffffffffffffffffffffffffffffffffff16611a3d565b6110bb600760008a81526020019081526020016000206004018054806020026020016040519081016040528092919081815260200182805480156110b157602002820191906000526020600020905b8160009054906101000a900473ffffffffffffffffffffffffffffffffffffffff1673ffffffffffffffffffffffffffffffffffffffff1681526020019060010190808311611067575b5050505050611a70565b611150600760008b815260200190815260200160002060050180548060200260200160405190810160405280929190818152602001828054801561114657602002820191906000526020600020906000905b82829054906101000a900461ffff1661ffff168152602001906002019060208260010104928301926001038202915080841161110d5790505b5050505050611b1c565b60405160200161116697969594939291906136ca565b604051602081830303815290604052611bab565b60405160200161118a919061382b565b6040516020818303038152906040529050919050565b600660009054906101000a900461ffff1681565b6000600560008473ffffffffffffffffffffffffffffffffffffffff1673ffffffffffffffffffffffffffffffffffffffff16815260200190815260200160002060008373ffffffffffffffffffffffffffffffffffffffff1673ffffffffffffffffffffffffffffffffffffffff16815260200190815260200160002060009054906101000a900460ff16905092915050565b60007f01ffc9a7000000000000000000000000000000000000000000000000000000007bffffffffffffffffffffffffffffffffffffffffffffffffffffffff1916827bffffffffffffffffffffffffffffffffffffffffffffffffffffffff1916149050919050565b6112bb81611d23565b6112fa576040517f08c379a00000000000000000000000000000000000000000000000000000000081526004016112f1906131ab565b60405180910390fd5b50565b600033905090565b816004600083815260200190815260200160002060006101000a81548173ffffffffffffffffffffffffffffffffffffffff021916908373ffffffffffffffffffffffffffffffffffffffff160217905550808273ffffffffffffffffffffffffffffffffffffffff16611378836107aa565b73ffffffffffffffffffffffffffffffffffffffff167f8c5be1e5ebec7d5bd14f71427d1e84f3dd0314c0f7b2291e5b200ac8c7c3b92560405160405180910390a45050565b6000806113ca836107aa565b90508073ffffffffffffffffffffffffffffffffffffffff168473ffffffffffffffffffffffffffffffffffffffff16148061140c575061140b81856111b4565b5b8061144a57508373ffffffffffffffffffffffffffffffffffffffff166114328461050b565b73ffffffffffffffffffffffffffffffffffffffff16145b91505092915050565b8273ffffffffffffffffffffffffffffffffffffffff16611473826107aa565b73ffffffffffffffffffffffffffffffffffffffff16146114c9576040517f08c379a00000000000000000000000000000000000000000000000000000000081526004016114c0906138bf565b60405180910390fd5b600073ffffffffffffffffffffffffffffffffffffffff168273ffffffffffffffffffffffffffffffffffffffff1603611538576040517f08c379a000000000000000000000000000000000000000000000000000000000815260040161152f90613951565b60405180910390fd5b6115458383836001611d64565b8273ffffffffffffffffffffffffffffffffffffffff16611565826107aa565b73ffffffffffffffffffffffffffffffffffffffff16146115bb576040517f08c379a00000000000000000000000000000000000000000000000000000000081526004016115b2906138bf565b60405180910390fd5b6004600082815260200190815260200160002060006101000a81549073ffffffffffffffffffffffffffffffffffffffff02191690556001600360008573ffffffffffffffffffffffffffffffffffffffff1673ffffffffffffffffffffffffffffffffffffffff168152602001908152602001600020600082825403925050819055506001600360008473ffffffffffffffffffffffffffffffffffffffff1673ffffffffffffffffffffffffffffffffffffffff16815260200190815260200160002060008282540192505081905550816002600083815260200190815260200160002060006101000a81548173ffffffffffffffffffffffffffffffffffffffff021916908373ffffffffffffffffffffffffffffffffffffffff160217905550808273ffffffffffffffffffffffffffffffffffffffff168473ffffffffffffffffffffffffffffffffffffffff167fddf252ad1be2c89b69c2b068fc378daa952ba7f163c4a11628f55a4df523b3ef60405160405180910390a46117478383836001611d6a565b505050565b60006002600083815260200190815260200160002060009054906101000a900473ffffffffffffffffffffffffffffffffffffffff169050919050565b6117a3828260405180602001604052806000815250611d70565b5050565b8173ffffffffffffffffffffffffffffffffffffffff168373ffffffffffffffffffffffffffffffffffffffff1603611815576040517f08c379a000000000000000000000000000000000000000000000000000000000815260040161180c906139bd565b60405180910390fd5b80600560008573ffffffffffffffffffffffffffffffffffffffff1673ffffffffffffffffffffffffffffffffffffffff16815260200190815260200160002060008473ffffffffffffffffffffffffffffffffffffffff1673ffffffffffffffffffffffffffffffffffffffff16815260200190815260200160002060006101000a81548160ff0219169083151502179055508173ffffffffffffffffffffffffffffffffffffffff168373ffffffffffffffffffffffffffffffffffffffff167f17307eab39ab6107e8899845ad3d59bd9653f200f220920489ca2b5937696c318360405161190691906127ac565b60405180910390a3505050565b61191e848484611453565b61192a84848484611dcb565b611969576040517f08c379a000000000000000000000000000000000000000000000000000000000815260040161196090613a4f565b60405180910390fd5b50505050565b60606000600161197e84611f52565b01905060008167ffffffffffffffff81111561199d5761199c612a61565b5b6040519080825280601f01601f1916602001820160405280156119cf5781602001600182028036833780820191505090505b509050600082602001820190505b600115611a32578080600190039150507f3031323334353637383961626364656600000000000000000000000000000000600a86061a8153600a8581611a2657611a25613a6f565b5b049450600085036119dd575b819350505050919050565b6060611a6960148373ffffffffffffffffffffffffffffffffffffffff166120a590919063ffffffff16565b9050919050565b6060600060405180602001604052806000815250905060005b8351811015611b12576000611ad86014868481518110611aac57611aab613a9e565b5b602002602001015173ffffffffffffffffffffffffffffffffffffffff166120a590919063ffffffff16565b90508281604051602001611aed929190613b19565b6040516020818303038152906040529250508080611b0a90613b48565b915050611a89565b5080915050919050565b6060600060405180602001604052806000815250905060005b8351811015611ba1576000611b67858381518110611b5657611b55613a9e565b5b602002602001015161ffff1661196f565b90508281604051602001611b7c929190613b19565b6040516020818303038152906040529250508080611b9990613b48565b915050611b35565b5080915050919050565b60606000825103611bcd57604051806020016040528060008152509050611d1e565b6000604051806060016040528060408152602001613ec26040913990506000600360028551611bfc9190613b90565b611c069190613be6565b6004611c129190613c17565b90506000602082611c239190613b90565b67ffffffffffffffff811115611c3c57611c3b612a61565b5b6040519080825280601f01601f191660200182016040528015611c6e5781602001600182028036833780820191505090505b509050818152600183018586518101602084015b81831015611cdd576003830192508251603f8160121c168501518253600182019150603f81600c1c168501518253600182019150603f8160061c168501518253600182019150603f8116850151825360018201915050611c82565b600389510660018114611cf75760028114611d0757611d12565b613d3d60f01b6002830352611d12565b603d60f81b60018303525b50505050508093505050505b919050565b60008073ffffffffffffffffffffffffffffffffffffffff16611d458361174c565b73ffffffffffffffffffffffffffffffffffffffff1614159050919050565b50505050565b50505050565b611d7a83836122e1565b611d876000848484611dcb565b611dc6576040517f08c379a0000000000000000000000000000000000000000000000000000000008152600401611dbd90613a4f565b60405180910390fd5b505050565b6000611dec8473ffffffffffffffffffffffffffffffffffffffff166124fe565b15611f45578373ffffffffffffffffffffffffffffffffffffffff1663150b7a02611e156112fd565b8786866040518563ffffffff1660e01b8152600401611e379493929190613cc6565b6020604051808303816000875af1925050508015611e7357506040513d601f19601f82011682018060405250810190611e709190613d27565b60015b611ef5573d8060008114611ea3576040519150601f19603f3d011682016040523d82523d6000602084013e611ea8565b606091505b506000815103611eed576040517f08c379a0000000000000000000000000000000000000000000000000000000008152600401611ee490613a4f565b60405180910390fd5b805181602001fd5b63150b7a0260e01b7bffffffffffffffffffffffffffffffffffffffffffffffffffffffff1916817bffffffffffffffffffffffffffffffffffffffffffffffffffffffff191614915050611f4a565b600190505b949350505050565b600080600090507a184f03e93ff9f4daa797ed6e38ed64bf6a1f0100000000000000008310611fb0577a184f03e93ff9f4daa797ed6e38ed64bf6a1f0100000000000000008381611fa657611fa5613a6f565b5b0492506040810190505b6d04ee2d6d415b85acef81000000008310611fed576d04ee2d6d415b85acef81000000008381611fe357611fe2613a6f565b5b0492506020810190505b662386f26fc10000831061201c57662386f26fc10000838161201257612011613a6f565b5b0492506010810190505b6305f5e1008310612045576305f5e100838161203b5761203a613a6f565b5b0492506008810190505b612710831061206a5761271083816120605761205f613a6f565b5b0492506004810190505b6064831061208d576064838161208357612082613a6f565b5b0492506002810190505b600a831061209c576001810190505b80915050919050565b6060600060028360026120b89190613c17565b6120c29190613b90565b67ffffffffffffffff8111156120db576120da612a61565b5b6040519080825280601f01601f19166020018201604052801561210d5781602001600182028036833780820191505090505b5090507f30000000000000000000000000000000000000000000000000000000000000008160008151811061214557612144613a9e565b5b60200101907effffffffffffffffffffffffffffffffffffffffffffffffffffffffffffff1916908160001a9053507f7800000000000000000000000000000000000000000000000000000000000000816001815181106121a9576121a8613a9e565b5b60200101907effffffffffffffffffffffffffffffffffffffffffffffffffffffffffffff1916908160001a905350600060018460026121e99190613c17565b6121f39190613b90565b90505b6001811115612293577f3031323334353637383961626364656600000000000000000000000000000000600f86166010811061223557612234613a9e565b5b1a60f81b82828151811061224c5761224b613a9e565b5b60200101907effffffffffffffffffffffffffffffffffffffffffffffffffffffffffffff1916908160001a905350600485901c94508061228c90613d54565b90506121f6565b50600084146122d7576040517f08c379a00000000000000000000000000000000000000000000000000000000081526004016122ce90613dc9565b60405180910390fd5b8091505092915050565b600073ffffffffffffffffffffffffffffffffffffffff168273ffffffffffffffffffffffffffffffffffffffff1603612350576040517f08c379a000000000000000000000000000000000000000000000000000000000815260040161234790613e35565b60405180910390fd5b61235981611d23565b15612399576040517f08c379a000000000000000000000000000000000000000000000000000000000815260040161239090613ea1565b60405180910390fd5b6123a7600083836001611d64565b6123b081611d23565b156123f0576040517f08c379a00000000000000000000000000000000000000000000000000000000081526004016123e790613ea1565b60405180910390fd5b6001600360008473ffffffffffffffffffffffffffffffffffffffff1673ffffffffffffffffffffffffffffffffffffffff16815260200190815260200160002060008282540192505081905550816002600083815260200190815260200160002060006101000a81548173ffffffffffffffffffffffffffffffffffffffff021916908373ffffffffffffffffffffffffffffffffffffffff160217905550808273ffffffffffffffffffffffffffffffffffffffff16600073ffffffffffffffffffffffffffffffffffffffff167fddf252ad1be2c89b69c2b068fc378daa952ba7f163c4a11628f55a4df523b3ef60405160405180910390a46124fa600083836001611d6a565b5050565b6000808273ffffffffffffffffffffffffffffffffffffffff163b119050919050565b82805482825590600052602060002090810192821561259a579160200282015b828111156125995782518260006101000a81548173ffffffffffffffffffffffffffffffffffffffff021916908373ffffffffffffffffffffffffffffffffffffffff16021790555091602001919060010190612541565b5b5090506125a791906126db565b5090565b82805482825590600052602060002090600f016010900481019282156126445791602002820160005b8382111561261457835183826101000a81548161ffff021916908361ffff16021790555092602001926002016020816001010492830192600103026125d4565b80156126425782816101000a81549061ffff0219169055600201602081600101049283019260010302612614565b505b50905061265191906126db565b5090565b82805461266190612f78565b90600052602060002090601f01602090048101928261268357600085556126ca565b82601f1061269c57805160ff19168380011785556126ca565b828001600101855582156126ca579182015b828111156126c95782518255916020019190600101906126ae565b5b5090506126d791906126db565b5090565b5b808211156126f45760008160009055506001016126dc565b5090565b6000604051905090565b600080fd5b600080fd5b60007fffffffff0000000000000000000000000000000000000000000000000000000082169050919050565b6127418161270c565b811461274c57600080fd5b50565b60008135905061275e81612738565b92915050565b60006020828403121561277a57612779612702565b5b60006127888482850161274f565b91505092915050565b60008115159050919050565b6127a681612791565b82525050565b60006020820190506127c1600083018461279d565b92915050565b600081519050919050565b600082825260208201905092915050565b60005b838110156128015780820151818401526020810190506127e6565b83811115612810576000848401525b50505050565b6000601f19601f8301169050919050565b6000612832826127c7565b61283c81856127d2565b935061284c8185602086016127e3565b61285581612816565b840191505092915050565b6000602082019050818103600083015261287a8184612827565b905092915050565b6000819050919050565b61289581612882565b81146128a057600080fd5b50565b6000813590506128b28161288c565b92915050565b6000602082840312156128ce576128cd612702565b5b60006128dc848285016128a3565b91505092915050565b600073ffffffffffffffffffffffffffffffffffffffff82169050919050565b6000612910826128e5565b9050919050565b61292081612905565b82525050565b600060208201905061293b6000830184612917565b92915050565b61294a81612905565b811461295557600080fd5b50565b60008135905061296781612941565b92915050565b6000806040838503121561298457612983612702565b5b600061299285828601612958565b92505060206129a3858286016128a3565b9150509250929050565b6000806000606084860312156129c6576129c5612702565b5b60006129d486828701612958565b93505060206129e586828701612958565b92505060406129f6868287016128a3565b9150509250925092565b600060208284031215612a1657612a15612702565b5b6000612a2484828501612958565b91505092915050565b612a3681612882565b82525050565b6000602082019050612a516000830184612a2d565b92915050565b600080fd5b600080fd5b7f4e487b7100000000000000000000000000000000000000000000000000000000600052604160045260246000fd5b612a9982612816565b810181811067ffffffffffffffff82111715612ab857612ab7612a61565b5b80604052505050565b6000612acb6126f8565b9050612ad78282612a90565b919050565b600067ffffffffffffffff821115612af757612af6612a61565b5b612b0082612816565b9050602081019050919050565b82818337600083830152505050565b6000612b2f612b2a84612adc565b612ac1565b905082815260208101848484011115612b4b57612b4a612a5c565b5b612b56848285612b0d565b509392505050565b600082601f830112612b7357612b72612a57565b5b8135612b83848260208601612b1c565b91505092915050565b600061ffff82169050919050565b612ba381612b8c565b8114612bae57600080fd5b50565b600081359050612bc081612b9a565b92915050565b60008060008060008060c08789031215612be357612be2612702565b5b6000612bf189828a01612958565b965050602087013567ffffffffffffffff811115612c1257612c11612707565b5b612c1e89828a01612b5e565b955050604087013567ffffffffffffffff811115612c3f57612c3e612707565b5b612c4b89828a01612b5e565b945050606087013567ffffffffffffffff811115612c6c57612c6b612707565b5b612c7889828a01612b5e565b9350506080612c8989828a01612bb1565b92505060a0612c9a89828a01612958565b9150509295509295509295565b612cb081612b8c565b82525050565b600060a0820190508181036000830152612cd08188612827565b90508181036020830152612ce48187612827565b90508181036040830152612cf88186612827565b9050612d076060830185612ca7565b612d146080830184612917565b9695505050505050565b612d2781612791565b8114612d3257600080fd5b50565b600081359050612d4481612d1e565b92915050565b60008060408385031215612d6157612d60612702565b5b6000612d6f85828601612958565b9250506020612d8085828601612d35565b9150509250929050565b60008060408385031215612da157612da0612702565b5b6000612daf85828601612958565b9250506020612dc085828601612bb1565b9150509250929050565b600067ffffffffffffffff821115612de557612de4612a61565b5b612dee82612816565b9050602081019050919050565b6000612e0e612e0984612dca565b612ac1565b905082815260208101848484011115612e2a57612e29612a5c565b5b612e35848285612b0d565b509392505050565b600082601f830112612e5257612e51612a57565b5b8135612e62848260208601612dfb565b91505092915050565b60008060008060808587031215612e8557612e84612702565b5b6000612e9387828801612958565b9450506020612ea487828801612958565b9350506040612eb5878288016128a3565b925050606085013567ffffffffffffffff811115612ed657612ed5612707565b5b612ee287828801612e3d565b91505092959194509250565b6000602082019050612f036000830184612ca7565b92915050565b60008060408385031215612f2057612f1f612702565b5b6000612f2e85828601612958565b9250506020612f3f85828601612958565b9150509250929050565b7f4e487b7100000000000000000000000000000000000000000000000000000000600052602260045260246000fd5b60006002820490506001821680612f9057607f821691505b602082108103612fa357612fa2612f49565b5b50919050565b7f4552433732313a20617070726f76616c20746f2063757272656e74206f776e6560008201527f7200000000000000000000000000000000000000000000000000000000000000602082015250565b60006130056021836127d2565b915061301082612fa9565b604082019050919050565b6000602082019050818103600083015261303481612ff8565b9050919050565b7f4552433732313a20617070726f76652063616c6c6572206973206e6f7420746f60008201527f6b656e206f776e6572206f7220617070726f76656420666f7220616c6c000000602082015250565b6000613097603d836127d2565b91506130a28261303b565b604082019050919050565b600060208201905081810360008301526130c68161308a565b9050919050565b7f4552433732313a2063616c6c6572206973206e6f7420746f6b656e206f776e6560008201527f72206f7220617070726f76656400000000000000000000000000000000000000602082015250565b6000613129602d836127d2565b9150613134826130cd565b604082019050919050565b600060208201905081810360008301526131588161311c565b9050919050565b7f4552433732313a20696e76616c696420746f6b656e2049440000000000000000600082015250565b60006131956018836127d2565b91506131a08261315f565b602082019050919050565b600060208201905081810360008301526131c481613188565b9050919050565b7f4552433732313a2061646472657373207a65726f206973206e6f74206120766160008201527f6c6964206f776e65720000000000000000000000000000000000000000000000602082015250565b60006132276029836127d2565b9150613232826131cb565b604082019050919050565b600060208201905081810360008301526132568161321a565b9050919050565b7f4e487b7100000000000000000000000000000000000000000000000000000000600052601160045260246000fd5b600061329782612b8c565b915061ffff82036132ab576132aa61325d565b5b600182019050919050565b600081905092915050565b7f7b00000000000000000000000000000000000000000000000000000000000000600082015250565b60006132f76001836132b6565b9150613302826132c1565b600182019050919050565b7f226e616d65223a22000000000000000000000000000000000000000000000000600082015250565b60006133436008836132b6565b915061334e8261330d565b600882019050919050565b60008190508160005260206000209050919050565b6000815461337b81612f78565b61338581866132b6565b945060018216600081146133a057600181146133b1576133e4565b60ff198316865281860193506133e4565b6133ba85613359565b60005b838110156133dc578154818901526001820191506020810190506133bd565b838801955050505b50505092915050565b7f222c000000000000000000000000000000000000000000000000000000000000600082015250565b60006134236002836132b6565b915061342e826133ed565b600282019050919050565b7f22696d616765223a220000000000000000000000000000000000000000000000600082015250565b600061346f6009836132b6565b915061347a82613439565b600982019050919050565b7f226465736372697074696f6e223a220000000000000000000000000000000000600082015250565b60006134bb600f836132b6565b91506134c682613485565b600f82019050919050565b7f227072696365223a220000000000000000000000000000000000000000000000600082015250565b60006135076009836132b6565b9150613512826134d1565b600982019050919050565b6000613528826127c7565b61353281856132b6565b93506135428185602086016127e3565b80840191505092915050565b7f2273656c6c6572223a2200000000000000000000000000000000000000000000600082015250565b6000613584600a836132b6565b915061358f8261354e565b600a82019050919050565b7f2273746f636b686f6c64657273223a2200000000000000000000000000000000600082015250565b60006135d06010836132b6565b91506135db8261359a565b601082019050919050565b7f2273746f636b686f6c64696e67223a2200000000000000000000000000000000600082015250565b600061361c6010836132b6565b9150613627826135e6565b601082019050919050565b7f2200000000000000000000000000000000000000000000000000000000000000600082015250565b60006136686001836132b6565b915061367382613632565b600182019050919050565b7f7d00000000000000000000000000000000000000000000000000000000000000600082015250565b60006136b46001836132b6565b91506136bf8261367e565b600182019050919050565b60006136d5826132ea565b91506136e082613336565b91506136ec828a61336e565b91506136f782613416565b915061370282613462565b915061370e828961336e565b915061371982613416565b9150613724826134ae565b9150613730828861336e565b915061373b82613416565b9150613746826134fa565b9150613752828761351d565b915061375d82613416565b915061376882613577565b9150613774828661351d565b915061377f82613416565b915061378a826135c3565b9150613796828561351d565b91506137a182613416565b91506137ac8261360f565b91506137b8828461351d565b91506137c38261365b565b91506137ce826136a7565b915081905098975050505050505050565b7f646174613a6170706c69636174696f6e2f6a736f6e3b6261736536342c000000600082015250565b6000613815601d836132b6565b9150613820826137df565b601d82019050919050565b600061383682613808565b9150613842828461351d565b915081905092915050565b7f4552433732313a207472616e736665722066726f6d20696e636f72726563742060008201527f6f776e6572000000000000000000000000000000000000000000000000000000602082015250565b60006138a96025836127d2565b91506138b48261384d565b604082019050919050565b600060208201905081810360008301526138d88161389c565b9050919050565b7f4552433732313a207472616e7366657220746f20746865207a65726f2061646460008201527f7265737300000000000000000000000000000000000000000000000000000000602082015250565b600061393b6024836127d2565b9150613946826138df565b604082019050919050565b6000602082019050818103600083015261396a8161392e565b9050919050565b7f4552433732313a20617070726f766520746f2063616c6c657200000000000000600082015250565b60006139a76019836127d2565b91506139b282613971565b602082019050919050565b600060208201905081810360008301526139d68161399a565b9050919050565b7f4552433732313a207472616e7366657220746f206e6f6e20455243373231526560008201527f63656976657220696d706c656d656e7465720000000000000000000000000000602082015250565b6000613a396032836127d2565b9150613a44826139dd565b604082019050919050565b60006020820190508181036000830152613a6881613a2c565b9050919050565b7f4e487b7100000000000000000000000000000000000000000000000000000000600052601260045260246000fd5b7f4e487b7100000000000000000000000000000000000000000000000000000000600052603260045260246000fd5b7f2c00000000000000000000000000000000000000000000000000000000000000600082015250565b6000613b036001836132b6565b9150613b0e82613acd565b600182019050919050565b6000613b25828561351d565b9150613b3082613af6565b9150613b3c828461351d565b91508190509392505050565b6000613b5382612882565b91507fffffffffffffffffffffffffffffffffffffffffffffffffffffffffffffffff8203613b8557613b8461325d565b5b600182019050919050565b6000613b9b82612882565b9150613ba683612882565b9250827fffffffffffffffffffffffffffffffffffffffffffffffffffffffffffffffff03821115613bdb57613bda61325d565b5b828201905092915050565b6000613bf182612882565b9150613bfc83612882565b925082613c0c57613c0b613a6f565b5b828204905092915050565b6000613c2282612882565b9150613c2d83612882565b9250817fffffffffffffffffffffffffffffffffffffffffffffffffffffffffffffffff0483118215151615613c6657613c6561325d565b5b828202905092915050565b600081519050919050565b600082825260208201905092915050565b6000613c9882613c71565b613ca28185613c7c565b9350613cb28185602086016127e3565b613cbb81612816565b840191505092915050565b6000608082019050613cdb6000830187612917565b613ce86020830186612917565b613cf56040830185612a2d565b8181036060830152613d078184613c8d565b905095945050505050565b600081519050613d2181612738565b92915050565b600060208284031215613d3d57613d3c612702565b5b6000613d4b84828501613d12565b91505092915050565b6000613d5f82612882565b915060008203613d7257613d7161325d565b5b600182039050919050565b7f537472696e67733a20686578206c656e67746820696e73756666696369656e74600082015250565b6000613db36020836127d2565b9150613dbe82613d7d565b602082019050919050565b60006020820190508181036000830152613de281613da6565b9050919050565b7f4552433732313a206d696e7420746f20746865207a65726f2061646472657373600082015250565b6000613e1f6020836127d2565b9150613e2a82613de9565b602082019050919050565b60006020820190508181036000830152613e4e81613e12565b9050919050565b7f4552433732313a20746f6b656e20616c7265616479206d696e74656400000000600082015250565b6000613e8b601c836127d2565b9150613e9682613e55565b602082019050919050565b60006020820190508181036000830152613eba81613e7e565b905091905056fe4142434445464748494a4b4c4d4e4f505152535455565758595a6162636465666768696a6b6c6d6e6f707172737475767778797a303132333435363738392b2fa2646970667358221220426187daceb23c529565e65fb52bbe30ac4fdde99292a7afaee1e395d5362f9e64736f6c634300080d0033",
  "immutableReferences": {},
  "source": "// SPDX-License-Identifier: UNLICENSED\npragma solidity 0.8.13;\n\nimport \"@openzeppelin/contracts/token/ERC721/ERC721.sol\";\nimport \"base64-sol/base64.sol\";\nimport \"./libraries/HexStrings.sol\";\n\ncontract NFT is ERC721 {\n    constructor(string memory _name, string memory _symbol) ERC721(_name, _symbol) {}\n\n    uint16 public productCount = 0;\n    using HexStrings for uint256;\n\n    mapping(uint256 => Product) public products;\n\n    struct Product {\n      string name;\n      string image;\n      string description;\n      uint16 price;\n      address seller;\n      address[] stockholders;\n      uint16[] stockholding;\n    }\n\n    address[] stockholders;\n    uint16[] stockholding;\n\n    // stockholdingstockholders\n    function initStockData() public {\n      stockholders = new address[](0);\n      stockholding = new uint16[](0);\n    }\n\n    // stockholdingstockholders\n    function addStockData(address _stockholder, uint16 _stockholding) public {\n      stockholders.push(_stockholder);\n      stockholding.push(_stockholding);\n    }\n\n    function safeMint(\n      address _to, \n      string memory _name,\n      string memory _image,\n      string memory _description,\n      uint16 _price,\n      address _seller\n    ) public {\n        productCount++;\n        uint256 _tokenId = productCount;\n        _safeMint(_to, _tokenId);\n        products[_tokenId] = Product(\n          _name, \n          _image, \n          _description,\n          _price,\n          _seller,\n          stockholders,\n          stockholding\n        );\n    }\n\n    function tokenURI(uint256 _tokenId) \n    public \n    view \n    override(ERC721)\n    returns (string memory) {\n        return string(\n          abi.encodePacked(\n          \"data:application/json;base64,\",\n          Base64.encode(\n            bytes(\n              abi.encodePacked(\n                '{',\n                '\"name\":\"', products[_tokenId].name, '\",',\n                '\"image\":\"', products[_tokenId].image, '\",',\n                '\"description\":\"', products[_tokenId].description, '\",',\n                '\"price\":\"', Strings.toString(products[_tokenId].price), '\",',\n                '\"seller\":\"', addressToString(products[_tokenId].seller), '\",',\n                '\"stockholders\":\"', addressArrayToString(products[_tokenId].stockholders), '\",',\n                '\"stockholding\":\"', uintArrayToString(products[_tokenId].stockholding), '\"',\n                '}'\n              )\n            )\n          )\n        ));\n    }\n\n    function addressToString(address addr) internal pure returns (string memory) {\n    return  (uint256(uint160(addr))).toHexString(20);\n    }\n\n    // HexString\n    function addressArrayToString(address[] memory addrs) internal pure returns (string memory) {\n      string memory str = \"\";\n      for (uint i = 0; i < addrs.length; i++) {\n        string memory addStr = (uint256(uint160(addrs[i]))).toHexString(20);\n        str = string(abi.encodePacked(str,\",\", addStr));\n      }\n      return str;\n    }\n\n    function uintArrayToString(uint16[] memory uints) internal pure returns (string memory) {\n      string memory str = \"\";\n      for (uint i = 0; i < uints.length; i++) {\n        string memory addStr = Strings.toString(uints[i]);\n        str = string(abi.encodePacked(str,\",\", addStr));\n      }\n      return str;\n    }\n\n\n    \n}\n",
  "sourcePath": "/Users/hirosekento/Test/Dev/Solidity/DeFi-Sample-sol/contracts/Nft.sol",
  "compiler": {
    "name": "solc",
    "version": "0.8.13+commit.abaa5c0e.Emscripten.clang"
  },
  "schemaVersion": "3.4.14",
  "updatedAt": "2023-08-20T23:55:02.035Z",
  "networkType": "ethereum",
  "devdoc": {
    "kind": "dev",
    "methods": {
      "approve(address,uint256)": {
        "details": "See {IERC721-approve}."
      },
      "balanceOf(address)": {
        "details": "See {IERC721-balanceOf}."
      },
      "getApproved(uint256)": {
        "details": "See {IERC721-getApproved}."
      },
      "isApprovedForAll(address,address)": {
        "details": "See {IERC721-isApprovedForAll}."
      },
      "name()": {
        "details": "See {IERC721Metadata-name}."
      },
      "ownerOf(uint256)": {
        "details": "See {IERC721-ownerOf}."
      },
      "safeTransferFrom(address,address,uint256)": {
        "details": "See {IERC721-safeTransferFrom}."
      },
      "safeTransferFrom(address,address,uint256,bytes)": {
        "details": "See {IERC721-safeTransferFrom}."
      },
      "setApprovalForAll(address,bool)": {
        "details": "See {IERC721-setApprovalForAll}."
      },
      "supportsInterface(bytes4)": {
        "details": "See {IERC165-supportsInterface}."
      },
      "symbol()": {
        "details": "See {IERC721Metadata-symbol}."
      },
      "transferFrom(address,address,uint256)": {
        "details": "See {IERC721-transferFrom}."
      }
    },
    "version": 1
  },
  "userdoc": {
    "kind": "user",
    "methods": {},
    "version": 1
  }
}